{
  "contractName": "realEstate",
  "abi": [
    {
      "inputs": [],
      "stateMutability": "nonpayable",
      "type": "constructor"
    },
    {
      "inputs": [],
      "name": "accumulated",
      "outputs": [
        {
          "internalType": "uint256",
          "name": "",
          "type": "uint256"
        }
      ],
      "stateMutability": "view",
      "type": "function"
    },
    {
      "inputs": [
        {
          "internalType": "uint256",
          "name": "",
          "type": "uint256"
        }
      ],
      "name": "assets",
      "outputs": [
        {
          "internalType": "uint256",
          "name": "id",
          "type": "uint256"
        },
        {
          "internalType": "uint256",
          "name": "propertyID",
          "type": "uint256"
        },
        {
          "internalType": "string",
          "name": "symbol",
          "type": "string"
        },
        {
          "internalType": "address",
          "name": "mainPropertyOwner",
          "type": "address"
        },
        {
          "internalType": "uint256",
          "name": "totalSupply",
          "type": "uint256"
        },
        {
          "internalType": "uint256",
          "name": "availableSupply",
          "type": "uint256"
        },
        {
          "internalType": "address",
          "name": "tenant",
          "type": "address"
        },
        {
          "internalType": "uint256",
          "name": "rentPer30Day",
          "type": "uint256"
        },
        {
          "internalType": "uint8",
          "name": "rentalLimitMonths",
          "type": "uint8"
        },
        {
          "internalType": "uint256",
          "name": "rentalLimitBlocks",
          "type": "uint256"
        },
        {
          "internalType": "uint256",
          "name": "rentalBegin",
          "type": "uint256"
        },
        {
          "internalType": "uint256",
          "name": "occupiedUntill",
          "type": "uint256"
        }
      ],
      "stateMutability": "view",
      "type": "function"
    },
    {
      "inputs": [],
      "name": "avgBlockTime",
      "outputs": [
        {
          "internalType": "uint8",
          "name": "",
          "type": "uint8"
        }
      ],
      "stateMutability": "view",
      "type": "function"
    },
    {
      "inputs": [],
      "name": "gov",
      "outputs": [
        {
          "internalType": "address",
          "name": "",
          "type": "address"
        }
      ],
      "stateMutability": "view",
      "type": "function"
    },
    {
      "inputs": [
        {
          "internalType": "uint256",
          "name": "",
          "type": "uint256"
        }
      ],
      "name": "mappingProperty",
      "outputs": [
        {
          "internalType": "uint256",
          "name": "",
          "type": "uint256"
        }
      ],
      "stateMutability": "view",
      "type": "function"
    },
    {
      "inputs": [
        {
          "internalType": "uint256",
          "name": "",
          "type": "uint256"
        }
      ],
      "name": "stakeholders",
      "outputs": [
        {
          "internalType": "address",
          "name": "",
          "type": "address"
        }
      ],
      "stateMutability": "view",
      "type": "function"
    },
    {
      "inputs": [],
      "name": "tax",
      "outputs": [
        {
          "internalType": "uint8",
          "name": "",
          "type": "uint8"
        }
      ],
      "stateMutability": "view",
      "type": "function"
    },
    {
      "inputs": [
        {
          "internalType": "address",
          "name": "_stakeholder",
          "type": "address"
        }
      ],
      "name": "addStakeholder",
      "outputs": [],
      "stateMutability": "nonpayable",
      "type": "function"
    },
    {
      "inputs": [
        {
          "internalType": "uint256",
          "name": "_propertyID",
          "type": "uint256"
        },
        {
          "internalType": "string",
          "name": "_symbol",
          "type": "string"
        },
        {
          "internalType": "address",
          "name": "_mainPropertyOwner",
          "type": "address"
        }
      ],
      "name": "addProperty",
      "outputs": [],
      "stateMutability": "nonpayable",
      "type": "function"
    },
    {
      "inputs": [
        {
          "internalType": "uint256",
          "name": "_propertyID",
          "type": "uint256"
        },
        {
          "internalType": "address",
          "name": "_from",
          "type": "address"
        },
        {
          "internalType": "uint256",
          "name": "_sharesOffered",
          "type": "uint256"
        },
        {
          "internalType": "uint256",
          "name": "_shareSellPrice",
          "type": "uint256"
        }
      ],
      "name": "offerShares",
      "outputs": [],
      "stateMutability": "nonpayable",
      "type": "function"
    },
    {
      "inputs": [
        {
          "internalType": "address payable",
          "name": "_from",
          "type": "address"
        },
        {
          "internalType": "uint256",
          "name": "_propertyID",
          "type": "uint256"
        },
        {
          "internalType": "uint256",
          "name": "_numberOfshares",
          "type": "uint256"
        }
      ],
      "name": "buyShares",
      "outputs": [],
      "stateMutability": "payable",
      "type": "function"
    },
    {
      "inputs": [
        {
          "internalType": "uint256",
          "name": "_propertyID",
          "type": "uint256"
        }
      ],
      "name": "showSharesOf",
      "outputs": [
        {
          "internalType": "uint256",
          "name": "",
          "type": "uint256"
        }
      ],
      "stateMutability": "view",
      "type": "function"
    },
    {
      "inputs": [
        {
          "internalType": "uint256",
          "name": "_rent",
          "type": "uint256"
        },
        {
          "internalType": "uint256",
          "name": "_propertyID",
          "type": "uint256"
        }
      ],
      "name": "setRentper30Day",
      "outputs": [],
      "stateMutability": "nonpayable",
      "type": "function"
    }
  ],
  "bytecode": "0x608060405233600360006101000a81548173ffffffffffffffffffffffffffffffffffffffff021916908373ffffffffffffffffffffffffffffffffffffffff16021790555034801561005157600080fd5b50600d600160006101000a81548160ff021916908360ff16021790555060006001806101000a81548160ff021916908360ff1602179055506008600160026101000a81548160ff021916908360ff1602179055506004600360009054906101000a900473ffffffffffffffffffffffffffffffffffffffff169080600181540180825580915050600190039060005260206000200160009091909190916101000a81548173ffffffffffffffffffffffffffffffffffffffff021916908373ffffffffffffffffffffffffffffffffffffffff1602179055506114dd806101396000396000f3fe6080604052600436106100c25760003560e01c80637a0443231161007f57806399c8d5561161005957806399c8d5561461026b578063cf35bdd014610296578063e5c42fd1146102de578063f19e148614610307576100c2565b80637a044323146101da578063815c9f01146102055780638a5595bb14610242576100c2565b8063047a36ca146100c757806312d43a51146100f057806317f692221461011b5780631d6b8b72146101375780633ed07f87146101745780634993a7481461019d575b600080fd5b3480156100d357600080fd5b506100ee60048036038101906100e99190610c6c565b610332565b005b3480156100fc57600080fd5b5061010561042a565b6040516101129190610ce2565b60405180910390f35b61013560048036038101906101309190610d3b565b610450565b005b34801561014357600080fd5b5061015e60048036038101906101599190610d8e565b610538565b60405161016b9190610ce2565b60405180910390f35b34801561018057600080fd5b5061019b60048036038101906101969190610f01565b610577565b005b3480156101a957600080fd5b506101c460048036038101906101bf9190610d8e565b610725565b6040516101d19190610f7f565b60405180910390f35b3480156101e657600080fd5b506101ef610782565b6040516101fc9190610f7f565b60405180910390f35b34801561021157600080fd5b5061022c60048036038101906102279190610d8e565b610788565b6040516102399190610f7f565b60405180910390f35b34801561024e57600080fd5b5061026960048036038101906102649190610f9a565b6107a0565b005b34801561027757600080fd5b50610280610857565b60405161028d9190610ff6565b60405180910390f35b3480156102a257600080fd5b506102bd60048036038101906102b89190610d8e565b61086a565b6040516102d59c9b9a99989796959493929190611099565b60405180910390f35b3480156102ea57600080fd5b506103056004803603810190610300919061115a565b61099f565b005b34801561031357600080fd5b5061031c610a5b565b6040516103299190610ff6565b60405180910390f35b60006002600086815260200190815260200160002090508060040160003373ffffffffffffffffffffffffffffffffffffffff1673ffffffffffffffffffffffffffffffffffffffff1681526020019081526020016000205483111561039757600080fd5b828160080160008673ffffffffffffffffffffffffffffffffffffffff1673ffffffffffffffffffffffffffffffffffffffff16815260200190815260200160002081905550818160090160008673ffffffffffffffffffffffffffffffffffffffff1673ffffffffffffffffffffffffffffffffffffffff168152602001908152602001600020819055505050505050565b600360009054906101000a900473ffffffffffffffffffffffffffffffffffffffff1681565b60006002600084815260200190815260200160002090508181600601600082825461047b91906111b6565b92505081905550818160080160008673ffffffffffffffffffffffffffffffffffffffff1673ffffffffffffffffffffffffffffffffffffffff16815260200190815260200160002060008282546104d391906111b6565b92505081905550818160040160003373ffffffffffffffffffffffffffffffffffffffff1673ffffffffffffffffffffffffffffffffffffffff168152602001908152602001600020600082825461052b91906111ea565b9250508190555050505050565b6004818154811061054857600080fd5b906000526020600020016000915054906101000a900473ffffffffffffffffffffffffffffffffffffffff1681565b600360009054906101000a900473ffffffffffffffffffffffffffffffffffffffff1673ffffffffffffffffffffffffffffffffffffffff163373ffffffffffffffffffffffffffffffffffffffff16146105d157600080fd5b60006105dc82610a6e565b5090508061061f576040517f08c379a0000000000000000000000000000000000000000000000000000000008152600401610616906112b2565b60405180910390fd5b600080815480929190610631906112d2565b9190505550600054600760008681526020019081526020016000208190555060006002600080548152602001908152602001600020905084816001018190555083816002019080519060200190610689929190610b21565b50828160030160006101000a81548173ffffffffffffffffffffffffffffffffffffffff021916908373ffffffffffffffffffffffffffffffffffffffff1602179055506064816005018190555060648160040160008573ffffffffffffffffffffffffffffffffffffffff1673ffffffffffffffffffffffffffffffffffffffff168152602001908152602001600020819055505050505050565b60006002600083815260200190815260200160002060040160003373ffffffffffffffffffffffffffffffffffffffff1673ffffffffffffffffffffffffffffffffffffffff168152602001908152602001600020549050919050565b60055481565b60076020528060005260406000206000915090505481565b60006002600083815260200190815260200160002090503373ffffffffffffffffffffffffffffffffffffffff168160030160009054906101000a900473ffffffffffffffffffffffffffffffffffffffff1673ffffffffffffffffffffffffffffffffffffffff1614610849576040517f08c379a000000000000000000000000000000000000000000000000000000000815260040161084090611366565b60405180910390fd5b8281600a0181905550505050565b600160029054906101000a900460ff1681565b6002602052806000526040600020600091509050806000015490806001015490806002018054610899906113b5565b80601f01602080910402602001604051908101604052809291908181526020018280546108c5906113b5565b80156109125780601f106108e757610100808354040283529160200191610912565b820191906000526020600020905b8154815290600101906020018083116108f557829003601f168201915b5050505050908060030160009054906101000a900473ffffffffffffffffffffffffffffffffffffffff16908060050154908060060154908060070160009054906101000a900473ffffffffffffffffffffffffffffffffffffffff169080600a01549080600b0160009054906101000a900460ff169080600c01549080600d01549080600e015490508c565b60006109aa82610a6e565b50905060001515811515146109f4576040517f08c379a00000000000000000000000000000000000000000000000000000000081526004016109eb90611458565b60405180910390fd5b6004829080600181540180825580915050600190039060005260206000200160009091909190916101000a81548173ffffffffffffffffffffffffffffffffffffffff021916908373ffffffffffffffffffffffffffffffffffffffff1602179055505050565b600160009054906101000a900460ff1681565b60008060005b600480549050811015610b135760048181548110610a9557610a94611478565b5b9060005260206000200160009054906101000a900473ffffffffffffffffffffffffffffffffffffffff1673ffffffffffffffffffffffffffffffffffffffff168473ffffffffffffffffffffffffffffffffffffffff1603610aff576001819250925050610b1c565b600181610b0c91906111ea565b9050610a74565b50600080915091505b915091565b828054610b2d906113b5565b90600052602060002090601f016020900481019282610b4f5760008555610b96565b82601f10610b6857805160ff1916838001178555610b96565b82800160010185558215610b96579182015b82811115610b95578251825591602001919060010190610b7a565b5b509050610ba39190610ba7565b5090565b5b80821115610bc0576000816000905550600101610ba8565b5090565b6000604051905090565b600080fd5b600080fd5b6000819050919050565b610beb81610bd8565b8114610bf657600080fd5b50565b600081359050610c0881610be2565b92915050565b600073ffffffffffffffffffffffffffffffffffffffff82169050919050565b6000610c3982610c0e565b9050919050565b610c4981610c2e565b8114610c5457600080fd5b50565b600081359050610c6681610c40565b92915050565b60008060008060808587031215610c8657610c85610bce565b5b6000610c9487828801610bf9565b9450506020610ca587828801610c57565b9350506040610cb687828801610bf9565b9250506060610cc787828801610bf9565b91505092959194509250565b610cdc81610c2e565b82525050565b6000602082019050610cf76000830184610cd3565b92915050565b6000610d0882610c0e565b9050919050565b610d1881610cfd565b8114610d2357600080fd5b50565b600081359050610d3581610d0f565b92915050565b600080600060608486031215610d5457610d53610bce565b5b6000610d6286828701610d26565b9350506020610d7386828701610bf9565b9250506040610d8486828701610bf9565b9150509250925092565b600060208284031215610da457610da3610bce565b5b6000610db284828501610bf9565b91505092915050565b600080fd5b600080fd5b6000601f19601f8301169050919050565b7f4e487b7100000000000000000000000000000000000000000000000000000000600052604160045260246000fd5b610e0e82610dc5565b810181811067ffffffffffffffff82111715610e2d57610e2c610dd6565b5b80604052505050565b6000610e40610bc4565b9050610e4c8282610e05565b919050565b600067ffffffffffffffff821115610e6c57610e6b610dd6565b5b610e7582610dc5565b9050602081019050919050565b82818337600083830152505050565b6000610ea4610e9f84610e51565b610e36565b905082815260208101848484011115610ec057610ebf610dc0565b5b610ecb848285610e82565b509392505050565b600082601f830112610ee857610ee7610dbb565b5b8135610ef8848260208601610e91565b91505092915050565b600080600060608486031215610f1a57610f19610bce565b5b6000610f2886828701610bf9565b935050602084013567ffffffffffffffff811115610f4957610f48610bd3565b5b610f5586828701610ed3565b9250506040610f6686828701610c57565b9150509250925092565b610f7981610bd8565b82525050565b6000602082019050610f946000830184610f70565b92915050565b60008060408385031215610fb157610fb0610bce565b5b6000610fbf85828601610bf9565b9250506020610fd085828601610bf9565b9150509250929050565b600060ff82169050919050565b610ff081610fda565b82525050565b600060208201905061100b6000830184610fe7565b92915050565b600081519050919050565b600082825260208201905092915050565b60005b8381101561104b578082015181840152602081019050611030565b8381111561105a576000848401525b50505050565b600061106b82611011565b611075818561101c565b935061108581856020860161102d565b61108e81610dc5565b840191505092915050565b6000610180820190506110af600083018f610f70565b6110bc602083018e610f70565b81810360408301526110ce818d611060565b90506110dd606083018c610cd3565b6110ea608083018b610f70565b6110f760a083018a610f70565b61110460c0830189610cd3565b61111160e0830188610f70565b61111f610100830187610fe7565b61112d610120830186610f70565b61113b610140830185610f70565b611149610160830184610f70565b9d9c50505050505050505050505050565b6000602082840312156111705761116f610bce565b5b600061117e84828501610c57565b91505092915050565b7f4e487b7100000000000000000000000000000000000000000000000000000000600052601160045260246000fd5b60006111c182610bd8565b91506111cc83610bd8565b9250828210156111df576111de611187565b5b828203905092915050565b60006111f582610bd8565b915061120083610bd8565b9250827fffffffffffffffffffffffffffffffffffffffffffffffffffffffffffffffff0382111561123557611234611187565b5b828201905092915050565b7f5468652050726f7065727479206f776e6572206973206e6f742061206c69737460008201527f6564000000000000000000000000000000000000000000000000000000000000602082015250565b600061129c60228361101c565b91506112a782611240565b604082019050919050565b600060208201905081810360008301526112cb8161128f565b9050919050565b60006112dd82610bd8565b91507fffffffffffffffffffffffffffffffffffffffffffffffffffffffffffffffff820361130f5761130e611187565b5b600182019050919050565b7f536f72727920796f7520617265206e6f742070726f7065727479206f776e6572600082015250565b600061135060208361101c565b915061135b8261131a565b602082019050919050565b6000602082019050818103600083015261137f81611343565b9050919050565b7f4e487b7100000000000000000000000000000000000000000000000000000000600052602260045260246000fd5b600060028204905060018216806113cd57607f821691505b6020821081036113e0576113df611386565b5b50919050565b7f546865205374616b65686f6c64657220697320616c7265616479206c6973746560008201527f6400000000000000000000000000000000000000000000000000000000000000602082015250565b600061144260218361101c565b915061144d826113e6565b604082019050919050565b6000602082019050818103600083015261147181611435565b9050919050565b7f4e487b7100000000000000000000000000000000000000000000000000000000600052603260045260246000fdfea26469706673582212206b6c13013ca33cc5c26287506291c57cc9310e343c1f49233cbd0ff5d986773764736f6c634300080d0033",
  "immutableReferences": {},
  "source": "// SPDX-License-Identifier: GPL-3.0\n\npragma solidity ^0.8.0;\n\ncontract realEstate {\n    struct Asset {\n        uint256 id;\n        uint256 propertyID;\n        string symbol;\n        address mainPropertyOwner;\n        mapping(address => uint256) shares;\n        uint256 totalSupply;\n        uint256 availableSupply;\n        address tenant;\n        mapping(address => uint256) sharesOffered; // address => numberof shares => price\n        mapping(address => uint256) shareSellPrice;\n        uint256 rentPer30Day;\n        uint8 rentalLimitMonths; // rent can be paid in advance\n        uint256 rentalLimitBlocks; //rent limit in block\n        uint256 rentalBegin; //rent begin at block number\n        uint256 occupiedUntill; // rent has paid untill block number\n        mapping(address => uint256) rentpaidUntill;\n    }\n\n    uint256 numOfProperties;\n    uint8 public avgBlockTime; // Avg block time in seconds.\n    uint8 private decimals; // Decimals of our Shares. Has to be 0.\n    uint8 public tax; // Can Preset Tax rate in constructor. To be change by government only.\n\n    mapping(uint256 => Asset) public assets;\n    address public gov = msg.sender;\n    address[] public stakeholders;\n    uint256 public accumulated;\n    uint256 private _taxdeduct; // ammount of tax to be paid for incoming ether.\n    mapping(uint256 => uint256) public mappingProperty;\n\n    modifier onlyGov() {\n        require(msg.sender == gov);\n        _;\n    }\n\n    constructor() {\n        avgBlockTime = 13;\n        decimals = 0;\n        tax = 8;\n        stakeholders.push(gov);\n    }\n\n    function addStakeholder(address _stakeholder) public {\n        (bool _istakeholder, ) = isStakeholder(_stakeholder);\n        require(_istakeholder == false, \"The Stakeholder is already listed\");\n        stakeholders.push(_stakeholder);\n    }\n\n    function isStakeholder(address _stakeholder)\n        private\n        view\n        returns (bool, uint256)\n    {\n        for (uint256 s = 0; s < stakeholders.length; s += 1) {\n            if (_stakeholder == stakeholders[s]) return (true, s);\n        }\n\n        return (false, 0);\n    }\n\n    function addProperty(\n        uint256 _propertyID,\n        string memory _symbol,\n        address _mainPropertyOwner\n    ) public onlyGov {\n        (bool _istakeholder, ) = isStakeholder(_mainPropertyOwner);\n        require(_istakeholder, \"The Property owner is not a listed\");\n        numOfProperties++;\n        mappingProperty[_propertyID] = numOfProperties;\n        Asset storage a = assets[numOfProperties];\n        a.propertyID = _propertyID;\n        a.symbol = _symbol;\n        a.mainPropertyOwner = _mainPropertyOwner;\n        a.totalSupply = 100;\n        a.shares[_mainPropertyOwner] = 100;\n    }\n\n    function seizureFrom(\n        uint256 _propertyID,\n        address _from,\n        address _to,\n        uint256 _value\n    ) private returns (bool) {\n        Asset storage a = assets[_propertyID];\n        a.shares[_from] -= _value;\n        a.shares[_to] += _value;\n        return true;\n    }\n\n    function offerShares(\n        uint256 _propertyID,\n        address _from,\n        uint256 _sharesOffered,\n        uint256 _shareSellPrice\n    ) public {\n        Asset storage a = assets[_propertyID];\n        require(_sharesOffered <= a.shares[msg.sender]);\n        a.sharesOffered[_from] = _sharesOffered;\n        a.shareSellPrice[_from] = _shareSellPrice;\n    }\n\n    function buyShares(\n        address payable _from,\n        uint256 _propertyID,\n        uint256 _numberOfshares\n    ) public payable {\n        Asset storage a = assets[_propertyID];\n        a.availableSupply -= _numberOfshares;\n        a.sharesOffered[_from] -= _numberOfshares;\n        a.shares[msg.sender] += _numberOfshares;\n    }\n\n    function showSharesOf(uint256 _propertyID) public view returns (uint256) {\n        return assets[_propertyID].shares[msg.sender];\n    }\n\n    function setRentper30Day(uint256 _rent, uint256 _propertyID) public {\n        Asset storage a = assets[_propertyID];\n        require(\n            a.mainPropertyOwner == msg.sender,\n            \"Sorry you are not property owner\"\n        );\n        a.rentPer30Day = _rent;\n    }\n}\n",
  "sourcePath": "F:\\Blockchain real estate\\RET\\contracts\\RealEstateTokenization.sol",
  "compiler": {
    "name": "solc",
    "version": "0.8.13+commit.abaa5c0e.Emscripten.clang"
  },
  "schemaVersion": "3.4.4",
  "updatedAt": "2022-04-27T12:49:53.163Z",
  "devdoc": {
    "kind": "dev",
    "methods": {},
    "version": 1
  },
  "userdoc": {
    "kind": "user",
    "methods": {},
    "version": 1
  }
}