{
  "contractName": "RealEstateTokenization",
  "abi": [
    {
      "inputs": [],
      "stateMutability": "nonpayable",
      "type": "constructor"
    },
    {
      "inputs": [],
      "name": "accumulated",
      "outputs": [
        {
          "internalType": "uint256",
          "name": "",
          "type": "uint256"
        }
      ],
      "stateMutability": "view",
      "type": "function",
      "constant": true
    },
    {
      "inputs": [
        {
          "internalType": "uint256",
          "name": "",
          "type": "uint256"
        }
      ],
      "name": "assets",
      "outputs": [
        {
          "internalType": "uint256",
          "name": "id",
          "type": "uint256"
        },
        {
          "internalType": "uint256",
          "name": "propertyID",
          "type": "uint256"
        },
        {
          "internalType": "string",
          "name": "symbol",
          "type": "string"
        },
        {
          "internalType": "address",
          "name": "mainPropertyOwner",
          "type": "address"
        },
        {
          "internalType": "uint256",
          "name": "totalSupply",
          "type": "uint256"
        },
        {
          "internalType": "uint256",
          "name": "availableSupply",
          "type": "uint256"
        },
        {
          "internalType": "address",
          "name": "tenant",
          "type": "address"
        },
        {
          "internalType": "uint256",
          "name": "rentPer30Day",
          "type": "uint256"
        },
        {
          "internalType": "uint8",
          "name": "rentalLimitMonths",
          "type": "uint8"
        },
        {
          "internalType": "uint256",
          "name": "rentalLimitBlocks",
          "type": "uint256"
        },
        {
          "internalType": "uint256",
          "name": "rentalBegin",
          "type": "uint256"
        },
        {
          "internalType": "uint256",
          "name": "occupiedUntill",
          "type": "uint256"
        }
      ],
      "stateMutability": "view",
      "type": "function",
      "constant": true
    },
    {
      "inputs": [],
      "name": "avgBlockTime",
      "outputs": [
        {
          "internalType": "uint8",
          "name": "",
          "type": "uint8"
        }
      ],
      "stateMutability": "view",
      "type": "function",
      "constant": true
    },
    {
      "inputs": [],
      "name": "gov",
      "outputs": [
        {
          "internalType": "address",
          "name": "",
          "type": "address"
        }
      ],
      "stateMutability": "view",
      "type": "function",
      "constant": true
    },
    {
      "inputs": [
        {
          "internalType": "uint256",
          "name": "",
          "type": "uint256"
        }
      ],
      "name": "mappingProperty",
      "outputs": [
        {
          "internalType": "uint256",
          "name": "",
          "type": "uint256"
        }
      ],
      "stateMutability": "view",
      "type": "function",
      "constant": true
    },
    {
      "inputs": [],
      "name": "numOfProperties",
      "outputs": [
        {
          "internalType": "uint256",
          "name": "",
          "type": "uint256"
        }
      ],
      "stateMutability": "view",
      "type": "function",
      "constant": true
    },
    {
      "inputs": [
        {
          "internalType": "uint256",
          "name": "",
          "type": "uint256"
        }
      ],
      "name": "stakeholders",
      "outputs": [
        {
          "internalType": "address",
          "name": "",
          "type": "address"
        }
      ],
      "stateMutability": "view",
      "type": "function",
      "constant": true
    },
    {
      "inputs": [],
      "name": "tax",
      "outputs": [
        {
          "internalType": "uint8",
          "name": "",
          "type": "uint8"
        }
      ],
      "stateMutability": "view",
      "type": "function",
      "constant": true
    },
    {
      "inputs": [
        {
          "internalType": "address",
          "name": "_stakeholder",
          "type": "address"
        }
      ],
      "name": "addStakeholder",
      "outputs": [],
      "stateMutability": "nonpayable",
      "type": "function"
    },
    {
      "inputs": [
        {
          "internalType": "address",
          "name": "_stakeholder",
          "type": "address"
        }
      ],
      "name": "isStakeholder",
      "outputs": [
        {
          "internalType": "bool",
          "name": "",
          "type": "bool"
        },
        {
          "internalType": "uint256",
          "name": "",
          "type": "uint256"
        }
      ],
      "stateMutability": "view",
      "type": "function",
      "constant": true
    },
    {
      "inputs": [
        {
          "internalType": "uint256",
          "name": "_propertyID",
          "type": "uint256"
        },
        {
          "internalType": "string",
          "name": "_symbol",
          "type": "string"
        },
        {
          "internalType": "address",
          "name": "_mainPropertyOwner",
          "type": "address"
        }
      ],
      "name": "addProperty",
      "outputs": [],
      "stateMutability": "nonpayable",
      "type": "function"
    },
    {
      "inputs": [
        {
          "internalType": "uint256",
          "name": "_propertyID",
          "type": "uint256"
        },
        {
          "internalType": "address",
          "name": "_from",
          "type": "address"
        },
        {
          "internalType": "uint256",
          "name": "_sharesOffered",
          "type": "uint256"
        },
        {
          "internalType": "uint256",
          "name": "_shareSellPrice",
          "type": "uint256"
        }
      ],
      "name": "offerShares",
      "outputs": [],
      "stateMutability": "nonpayable",
      "type": "function"
    },
    {
      "inputs": [
        {
          "internalType": "address payable",
          "name": "_from",
          "type": "address"
        },
        {
          "internalType": "uint256",
          "name": "_propertyID",
          "type": "uint256"
        },
        {
          "internalType": "uint256",
          "name": "_numberOfshares",
          "type": "uint256"
        }
      ],
      "name": "buyShares",
      "outputs": [],
      "stateMutability": "payable",
      "type": "function",
      "payable": true
    },
    {
      "inputs": [
        {
          "internalType": "uint256",
          "name": "_propertyID",
          "type": "uint256"
        }
      ],
      "name": "showSharesOf",
      "outputs": [
        {
          "internalType": "uint256",
          "name": "",
          "type": "uint256"
        }
      ],
      "stateMutability": "view",
      "type": "function",
      "constant": true
    },
    {
      "inputs": [
        {
          "internalType": "uint256",
          "name": "_rent",
          "type": "uint256"
        },
        {
          "internalType": "uint256",
          "name": "_propertyID",
          "type": "uint256"
        }
      ],
      "name": "setRentper30Day",
      "outputs": [],
      "stateMutability": "nonpayable",
      "type": "function"
    }
  ],
  "bytecode": "0x60806040526000805533600360006101000a81548173ffffffffffffffffffffffffffffffffffffffff021916908373ffffffffffffffffffffffffffffffffffffffff16021790555034801561005557600080fd5b50600d600160006101000a81548160ff021916908360ff16021790555060006001806101000a81548160ff021916908360ff1602179055506008600160026101000a81548160ff021916908360ff1602179055506004600360009054906101000a900473ffffffffffffffffffffffffffffffffffffffff169080600181540180825580915050600190039060005260206000200160009091909190916101000a81548173ffffffffffffffffffffffffffffffffffffffff021916908373ffffffffffffffffffffffffffffffffffffffff1602179055506115168061013d6000396000f3fe6080604052600436106100e85760003560e01c80637a0443231161008a578063cf35bdd011610059578063cf35bdd0146102e7578063e5c42fd11461032f578063ef037b9014610358578063f19e148614610396576100e8565b80637a0443231461022b578063815c9f01146102565780638a5595bb1461029357806399c8d556146102bc576100e8565b8063190e4c77116100c6578063190e4c771461015d5780631d6b8b72146101885780633ed07f87146101c55780634993a748146101ee576100e8565b8063047a36ca146100ed57806312d43a511461011657806317f6922214610141575b600080fd5b3480156100f957600080fd5b50610114600480360381019061010f9190610ca9565b6103c1565b005b34801561012257600080fd5b5061012b6104b9565b6040516101389190610d1f565b60405180910390f35b61015b60048036038101906101569190610d78565b6104df565b005b34801561016957600080fd5b506101726105c7565b60405161017f9190610dda565b60405180910390f35b34801561019457600080fd5b506101af60048036038101906101aa9190610df5565b6105cd565b6040516101bc9190610d1f565b60405180910390f35b3480156101d157600080fd5b506101ec60048036038101906101e79190610f68565b61060c565b005b3480156101fa57600080fd5b5061021560048036038101906102109190610df5565b610762565b6040516102229190610dda565b60405180910390f35b34801561023757600080fd5b506102406107bf565b60405161024d9190610dda565b60405180910390f35b34801561026257600080fd5b5061027d60048036038101906102789190610df5565b6107c5565b60405161028a9190610dda565b60405180910390f35b34801561029f57600080fd5b506102ba60048036038101906102b59190610fd7565b6107dd565b005b3480156102c857600080fd5b506102d1610894565b6040516102de9190611033565b60405180910390f35b3480156102f357600080fd5b5061030e60048036038101906103099190610df5565b6108a7565b6040516103269c9b9a999897969594939291906110d6565b60405180910390f35b34801561033b57600080fd5b5061035660048036038101906103519190611197565b6109dc565b005b34801561036457600080fd5b5061037f600480360381019061037a9190611197565b610a98565b60405161038d9291906111df565b60405180910390f35b3480156103a257600080fd5b506103ab610b4b565b6040516103b89190611033565b60405180910390f35b60006002600086815260200190815260200160002090508060040160003373ffffffffffffffffffffffffffffffffffffffff1673ffffffffffffffffffffffffffffffffffffffff1681526020019081526020016000205483111561042657600080fd5b828160080160008673ffffffffffffffffffffffffffffffffffffffff1673ffffffffffffffffffffffffffffffffffffffff16815260200190815260200160002081905550818160090160008673ffffffffffffffffffffffffffffffffffffffff1673ffffffffffffffffffffffffffffffffffffffff168152602001908152602001600020819055505050505050565b600360009054906101000a900473ffffffffffffffffffffffffffffffffffffffff1681565b60006002600084815260200190815260200160002090508181600601600082825461050a9190611237565b92505081905550818160080160008673ffffffffffffffffffffffffffffffffffffffff1673ffffffffffffffffffffffffffffffffffffffff16815260200190815260200160002060008282546105629190611237565b92505081905550818160040160003373ffffffffffffffffffffffffffffffffffffffff1673ffffffffffffffffffffffffffffffffffffffff16815260200190815260200160002060008282546105ba919061126b565b9250508190555050505050565b60005481565b600481815481106105dd57600080fd5b906000526020600020016000915054906101000a900473ffffffffffffffffffffffffffffffffffffffff1681565b600061061782610a98565b5090508061065a576040517f08c379a000000000000000000000000000000000000000000000000000000000815260040161065190611333565b60405180910390fd5b600160008082825461066c919061126b565b925050819055506000546007600086815260200190815260200160002081905550600060026000805481526020019081526020016000209050848160010181905550838160020190805190602001906106c6929190610b5e565b50828160030160006101000a81548173ffffffffffffffffffffffffffffffffffffffff021916908373ffffffffffffffffffffffffffffffffffffffff1602179055506064816005018190555060648160040160008573ffffffffffffffffffffffffffffffffffffffff1673ffffffffffffffffffffffffffffffffffffffff168152602001908152602001600020819055505050505050565b60006002600083815260200190815260200160002060040160003373ffffffffffffffffffffffffffffffffffffffff1673ffffffffffffffffffffffffffffffffffffffff168152602001908152602001600020549050919050565b60055481565b60076020528060005260406000206000915090505481565b60006002600083815260200190815260200160002090503373ffffffffffffffffffffffffffffffffffffffff168160030160009054906101000a900473ffffffffffffffffffffffffffffffffffffffff1673ffffffffffffffffffffffffffffffffffffffff1614610886576040517f08c379a000000000000000000000000000000000000000000000000000000000815260040161087d9061139f565b60405180910390fd5b8281600a0181905550505050565b600160029054906101000a900460ff1681565b60026020528060005260406000206000915090508060000154908060010154908060020180546108d6906113ee565b80601f0160208091040260200160405190810160405280929190818152602001828054610902906113ee565b801561094f5780601f106109245761010080835404028352916020019161094f565b820191906000526020600020905b81548152906001019060200180831161093257829003601f168201915b5050505050908060030160009054906101000a900473ffffffffffffffffffffffffffffffffffffffff16908060050154908060060154908060070160009054906101000a900473ffffffffffffffffffffffffffffffffffffffff169080600a01549080600b0160009054906101000a900460ff169080600c01549080600d01549080600e015490508c565b60006109e782610a98565b5090506000151581151514610a31576040517f08c379a0000000000000000000000000000000000000000000000000000000008152600401610a2890611491565b60405180910390fd5b6004829080600181540180825580915050600190039060005260206000200160009091909190916101000a81548173ffffffffffffffffffffffffffffffffffffffff021916908373ffffffffffffffffffffffffffffffffffffffff1602179055505050565b60008060005b600480549050811015610b3d5760048181548110610abf57610abe6114b1565b5b9060005260206000200160009054906101000a900473ffffffffffffffffffffffffffffffffffffffff1673ffffffffffffffffffffffffffffffffffffffff168473ffffffffffffffffffffffffffffffffffffffff1603610b29576001819250925050610b46565b600181610b36919061126b565b9050610a9e565b50600080915091505b915091565b600160009054906101000a900460ff1681565b828054610b6a906113ee565b90600052602060002090601f016020900481019282610b8c5760008555610bd3565b82601f10610ba557805160ff1916838001178555610bd3565b82800160010185558215610bd3579182015b82811115610bd2578251825591602001919060010190610bb7565b5b509050610be09190610be4565b5090565b5b80821115610bfd576000816000905550600101610be5565b5090565b6000604051905090565b600080fd5b600080fd5b6000819050919050565b610c2881610c15565b8114610c3357600080fd5b50565b600081359050610c4581610c1f565b92915050565b600073ffffffffffffffffffffffffffffffffffffffff82169050919050565b6000610c7682610c4b565b9050919050565b610c8681610c6b565b8114610c9157600080fd5b50565b600081359050610ca381610c7d565b92915050565b60008060008060808587031215610cc357610cc2610c0b565b5b6000610cd187828801610c36565b9450506020610ce287828801610c94565b9350506040610cf387828801610c36565b9250506060610d0487828801610c36565b91505092959194509250565b610d1981610c6b565b82525050565b6000602082019050610d346000830184610d10565b92915050565b6000610d4582610c4b565b9050919050565b610d5581610d3a565b8114610d6057600080fd5b50565b600081359050610d7281610d4c565b92915050565b600080600060608486031215610d9157610d90610c0b565b5b6000610d9f86828701610d63565b9350506020610db086828701610c36565b9250506040610dc186828701610c36565b9150509250925092565b610dd481610c15565b82525050565b6000602082019050610def6000830184610dcb565b92915050565b600060208284031215610e0b57610e0a610c0b565b5b6000610e1984828501610c36565b91505092915050565b600080fd5b600080fd5b6000601f19601f8301169050919050565b7f4e487b7100000000000000000000000000000000000000000000000000000000600052604160045260246000fd5b610e7582610e2c565b810181811067ffffffffffffffff82111715610e9457610e93610e3d565b5b80604052505050565b6000610ea7610c01565b9050610eb38282610e6c565b919050565b600067ffffffffffffffff821115610ed357610ed2610e3d565b5b610edc82610e2c565b9050602081019050919050565b82818337600083830152505050565b6000610f0b610f0684610eb8565b610e9d565b905082815260208101848484011115610f2757610f26610e27565b5b610f32848285610ee9565b509392505050565b600082601f830112610f4f57610f4e610e22565b5b8135610f5f848260208601610ef8565b91505092915050565b600080600060608486031215610f8157610f80610c0b565b5b6000610f8f86828701610c36565b935050602084013567ffffffffffffffff811115610fb057610faf610c10565b5b610fbc86828701610f3a565b9250506040610fcd86828701610c94565b9150509250925092565b60008060408385031215610fee57610fed610c0b565b5b6000610ffc85828601610c36565b925050602061100d85828601610c36565b9150509250929050565b600060ff82169050919050565b61102d81611017565b82525050565b60006020820190506110486000830184611024565b92915050565b600081519050919050565b600082825260208201905092915050565b60005b8381101561108857808201518184015260208101905061106d565b83811115611097576000848401525b50505050565b60006110a88261104e565b6110b28185611059565b93506110c281856020860161106a565b6110cb81610e2c565b840191505092915050565b6000610180820190506110ec600083018f610dcb565b6110f9602083018e610dcb565b818103604083015261110b818d61109d565b905061111a606083018c610d10565b611127608083018b610dcb565b61113460a083018a610dcb565b61114160c0830189610d10565b61114e60e0830188610dcb565b61115c610100830187611024565b61116a610120830186610dcb565b611178610140830185610dcb565b611186610160830184610dcb565b9d9c50505050505050505050505050565b6000602082840312156111ad576111ac610c0b565b5b60006111bb84828501610c94565b91505092915050565b60008115159050919050565b6111d9816111c4565b82525050565b60006040820190506111f460008301856111d0565b6112016020830184610dcb565b9392505050565b7f4e487b7100000000000000000000000000000000000000000000000000000000600052601160045260246000fd5b600061124282610c15565b915061124d83610c15565b9250828210156112605761125f611208565b5b828203905092915050565b600061127682610c15565b915061128183610c15565b9250827fffffffffffffffffffffffffffffffffffffffffffffffffffffffffffffffff038211156112b6576112b5611208565b5b828201905092915050565b7f5468652050726f7065727479206f776e6572206973206e6f742061206c69737460008201527f6564000000000000000000000000000000000000000000000000000000000000602082015250565b600061131d602283611059565b9150611328826112c1565b604082019050919050565b6000602082019050818103600083015261134c81611310565b9050919050565b7f536f72727920796f7520617265206e6f742070726f7065727479206f776e6572600082015250565b6000611389602083611059565b915061139482611353565b602082019050919050565b600060208201905081810360008301526113b88161137c565b9050919050565b7f4e487b7100000000000000000000000000000000000000000000000000000000600052602260045260246000fd5b6000600282049050600182168061140657607f821691505b602082108103611419576114186113bf565b5b50919050565b7f546865205374616b65686f6c64657220697320616c7265616479206c6973746560008201527f6400000000000000000000000000000000000000000000000000000000000000602082015250565b600061147b602183611059565b91506114868261141f565b604082019050919050565b600060208201905081810360008301526114aa8161146e565b9050919050565b7f4e487b7100000000000000000000000000000000000000000000000000000000600052603260045260246000fdfea26469706673582212207b9047cd424015a613af46902a27fc0796bc83a14c327f8c1aaa2be4615c847b64736f6c634300080d0033",
  "immutableReferences": {},
  "source": "// SPDX-License-Identifier: GPL-3.0\n\npragma solidity ^0.8.0;\n\ncontract RealEstateTokenization {\n    struct Asset {\n        uint256 id;\n        uint256 propertyID;\n        string symbol;\n        address mainPropertyOwner;\n        mapping(address => uint256) shares;\n        uint256 totalSupply;\n        uint256 availableSupply;\n        address tenant;\n        mapping(address => uint256) sharesOffered; // address => numberof shares => price\n        mapping(address => uint256) shareSellPrice;\n        uint256 rentPer30Day;\n        uint8 rentalLimitMonths; // rent can be paid in advance\n        uint256 rentalLimitBlocks; //rent limit in block\n        uint256 rentalBegin; //rent begin at block number\n        uint256 occupiedUntill; // rent has paid untill block number\n        mapping(address => uint256) rentpaidUntill;\n    }\n\n    uint256 public numOfProperties = 0;\n    uint8 public avgBlockTime; // Avg block time in seconds.\n    uint8 private decimals; // Decimals of our Shares. Has to be 0.\n    uint8 public tax; // Can Preset Tax rate in constructor. To be change by government only.\n\n    mapping(uint256 => Asset) public assets;\n    address public gov = msg.sender;\n    address[] public stakeholders;\n    uint256 public accumulated;\n    uint256 private _taxdeduct; // ammount of tax to be paid for incoming ether.\n    mapping(uint256 => uint256) public mappingProperty; // propertyId => id in mapping\n\n    modifier onlyGov() {\n        require(msg.sender == gov);\n        _;\n    }\n\n    constructor() {\n        avgBlockTime = 13;\n        decimals = 0;\n        tax = 8;\n        stakeholders.push(gov);\n    }\n\n    function addStakeholder(address _stakeholder) public {\n        (bool _istakeholder, ) = isStakeholder(_stakeholder);\n        require(_istakeholder == false, \"The Stakeholder is already listed\");\n        stakeholders.push(_stakeholder);\n    }\n\n    function isStakeholder(address _stakeholder)\n        public\n        view\n        returns (bool, uint256)\n    {\n        for (uint256 s = 0; s < stakeholders.length; s += 1) {\n            if (_stakeholder == stakeholders[s]) return (true, s);\n        }\n\n        return (false, 0);\n    }\n\n    function addProperty(\n        uint256 _propertyID,\n        string memory _symbol,\n        address _mainPropertyOwner\n    ) public {\n        (bool _istakeholder, ) = isStakeholder(_mainPropertyOwner);\n        require(_istakeholder, \"The Property owner is not a listed\");\n        numOfProperties += 1;\n        mappingProperty[_propertyID] = numOfProperties;\n        Asset storage a = assets[numOfProperties];\n        a.propertyID = _propertyID;\n        a.symbol = _symbol;\n        a.mainPropertyOwner = _mainPropertyOwner;\n        a.totalSupply = 100;\n        a.shares[_mainPropertyOwner] = 100;\n    }\n\n    function seizureFrom(\n        uint256 _propertyID,\n        address _from,\n        address _to,\n        uint256 _value\n    ) private returns (bool) {\n        Asset storage a = assets[_propertyID];\n        a.shares[_from] -= _value;\n        a.shares[_to] += _value;\n        return true;\n    }\n\n    function offerShares(\n        uint256 _propertyID,\n        address _from,\n        uint256 _sharesOffered,\n        uint256 _shareSellPrice\n    ) public {\n        Asset storage a = assets[_propertyID];\n        require(_sharesOffered <= a.shares[msg.sender]);\n        a.sharesOffered[_from] = _sharesOffered;\n        a.shareSellPrice[_from] = _shareSellPrice;\n    }\n\n    function buyShares(\n        address payable _from,\n        uint256 _propertyID,\n        uint256 _numberOfshares\n    ) public payable {\n        Asset storage a = assets[_propertyID];\n        a.availableSupply -= _numberOfshares;\n        a.sharesOffered[_from] -= _numberOfshares;\n        a.shares[msg.sender] += _numberOfshares;\n    }\n\n    function showSharesOf(uint256 _propertyID) public view returns (uint256) {\n        return assets[_propertyID].shares[msg.sender];\n    }\n\n    function setRentper30Day(uint256 _rent, uint256 _propertyID) public {\n        Asset storage a = assets[_propertyID];\n        require(\n            a.mainPropertyOwner == msg.sender,\n            \"Sorry you are not property owner\"\n        );\n        a.rentPer30Day = _rent;\n    }\n}\n",
  "sourcePath": "F:\\Blockchain real estate\\RET\\contracts\\RealEstateTokenization.sol",
  "compiler": {
    "name": "solc",
    "version": "0.8.13+commit.abaa5c0e.Emscripten.clang"
  },
  "schemaVersion": "3.4.4",
  "updatedAt": "2022-04-28T16:20:59.322Z",
  "networkType": "ethereum",
  "devdoc": {
    "kind": "dev",
    "methods": {},
    "version": 1
  },
  "userdoc": {
    "kind": "user",
    "methods": {},
    "version": 1
  }
}