{
  "contractName": "RealEstateTokenization",
  "abi": [
    {
      "inputs": [],
      "stateMutability": "nonpayable",
      "type": "constructor"
    },
    {
      "inputs": [],
      "name": "accumulated",
      "outputs": [
        {
          "internalType": "uint256",
          "name": "",
          "type": "uint256"
        }
      ],
      "stateMutability": "view",
      "type": "function",
      "constant": true
    },
    {
      "inputs": [
        {
          "internalType": "uint256",
          "name": "",
          "type": "uint256"
        }
      ],
      "name": "assets",
      "outputs": [
        {
          "internalType": "uint256",
          "name": "id",
          "type": "uint256"
        },
        {
          "internalType": "uint256",
          "name": "propertyID",
          "type": "uint256"
        },
        {
          "internalType": "string",
          "name": "symbol",
          "type": "string"
        },
        {
          "internalType": "address",
          "name": "mainPropertyOwner",
          "type": "address"
        },
        {
          "internalType": "uint256",
          "name": "totalSupply",
          "type": "uint256"
        },
        {
          "internalType": "uint256",
          "name": "availableSupply",
          "type": "uint256"
        },
        {
          "internalType": "address",
          "name": "tenant",
          "type": "address"
        },
        {
          "internalType": "uint256",
          "name": "rentPer30Day",
          "type": "uint256"
        },
        {
          "internalType": "uint8",
          "name": "rentalLimitMonths",
          "type": "uint8"
        },
        {
          "internalType": "uint256",
          "name": "rentalLimitBlocks",
          "type": "uint256"
        },
        {
          "internalType": "uint256",
          "name": "rentalBegin",
          "type": "uint256"
        },
        {
          "internalType": "uint256",
          "name": "occupiedUntill",
          "type": "uint256"
        }
      ],
      "stateMutability": "view",
      "type": "function",
      "constant": true
    },
    {
      "inputs": [],
      "name": "avgBlockTime",
      "outputs": [
        {
          "internalType": "uint8",
          "name": "",
          "type": "uint8"
        }
      ],
      "stateMutability": "view",
      "type": "function",
      "constant": true
    },
    {
      "inputs": [],
      "name": "blocksPer30Day",
      "outputs": [
        {
          "internalType": "uint256",
          "name": "",
          "type": "uint256"
        }
      ],
      "stateMutability": "view",
      "type": "function",
      "constant": true
    },
    {
      "inputs": [],
      "name": "gov",
      "outputs": [
        {
          "internalType": "address",
          "name": "",
          "type": "address"
        }
      ],
      "stateMutability": "view",
      "type": "function",
      "constant": true
    },
    {
      "inputs": [
        {
          "internalType": "uint256",
          "name": "",
          "type": "uint256"
        }
      ],
      "name": "mappingProperty",
      "outputs": [
        {
          "internalType": "uint256",
          "name": "",
          "type": "uint256"
        }
      ],
      "stateMutability": "view",
      "type": "function",
      "constant": true
    },
    {
      "inputs": [],
      "name": "numOfProperties",
      "outputs": [
        {
          "internalType": "uint256",
          "name": "",
          "type": "uint256"
        }
      ],
      "stateMutability": "view",
      "type": "function",
      "constant": true
    },
    {
      "inputs": [
        {
          "internalType": "address",
          "name": "",
          "type": "address"
        }
      ],
      "name": "revenues",
      "outputs": [
        {
          "internalType": "uint256",
          "name": "",
          "type": "uint256"
        }
      ],
      "stateMutability": "view",
      "type": "function",
      "constant": true
    },
    {
      "inputs": [
        {
          "internalType": "uint256",
          "name": "",
          "type": "uint256"
        }
      ],
      "name": "stakeholders",
      "outputs": [
        {
          "internalType": "address",
          "name": "",
          "type": "address"
        }
      ],
      "stateMutability": "view",
      "type": "function",
      "constant": true
    },
    {
      "inputs": [],
      "name": "tax",
      "outputs": [
        {
          "internalType": "uint8",
          "name": "",
          "type": "uint8"
        }
      ],
      "stateMutability": "view",
      "type": "function",
      "constant": true
    },
    {
      "inputs": [
        {
          "internalType": "address",
          "name": "_stakeholder",
          "type": "address"
        }
      ],
      "name": "addStakeholder",
      "outputs": [],
      "stateMutability": "nonpayable",
      "type": "function"
    },
    {
      "inputs": [
        {
          "internalType": "address",
          "name": "_stakeholder",
          "type": "address"
        }
      ],
      "name": "isStakeholder",
      "outputs": [
        {
          "internalType": "bool",
          "name": "",
          "type": "bool"
        },
        {
          "internalType": "uint256",
          "name": "",
          "type": "uint256"
        }
      ],
      "stateMutability": "view",
      "type": "function",
      "constant": true
    },
    {
      "inputs": [
        {
          "internalType": "uint256",
          "name": "_propertyID",
          "type": "uint256"
        },
        {
          "internalType": "address",
          "name": "_stakeholder",
          "type": "address"
        }
      ],
      "name": "isStakeholderInProperty",
      "outputs": [
        {
          "internalType": "bool",
          "name": "",
          "type": "bool"
        },
        {
          "internalType": "uint256",
          "name": "",
          "type": "uint256"
        }
      ],
      "stateMutability": "view",
      "type": "function",
      "constant": true
    },
    {
      "inputs": [
        {
          "internalType": "uint256",
          "name": "_propertyID",
          "type": "uint256"
        },
        {
          "internalType": "string",
          "name": "_symbol",
          "type": "string"
        },
        {
          "internalType": "address",
          "name": "_mainPropertyOwner",
          "type": "address"
        }
      ],
      "name": "addProperty",
      "outputs": [],
      "stateMutability": "nonpayable",
      "type": "function"
    },
    {
      "inputs": [
        {
          "internalType": "uint256",
          "name": "_propertyID",
          "type": "uint256"
        },
        {
          "internalType": "address",
          "name": "_from",
          "type": "address"
        },
        {
          "internalType": "uint256",
          "name": "_sharesOffered",
          "type": "uint256"
        },
        {
          "internalType": "uint256",
          "name": "_shareSellPrice",
          "type": "uint256"
        }
      ],
      "name": "offerShares",
      "outputs": [],
      "stateMutability": "nonpayable",
      "type": "function"
    },
    {
      "inputs": [
        {
          "internalType": "address",
          "name": "_tenant",
          "type": "address"
        },
        {
          "internalType": "uint256",
          "name": "_propertyID",
          "type": "uint256"
        }
      ],
      "name": "aproveTanent",
      "outputs": [],
      "stateMutability": "nonpayable",
      "type": "function"
    },
    {
      "inputs": [
        {
          "internalType": "uint256",
          "name": "_propertyID",
          "type": "uint256"
        }
      ],
      "name": "getAllInterrestedTenant",
      "outputs": [
        {
          "internalType": "address[]",
          "name": "",
          "type": "address[]"
        }
      ],
      "stateMutability": "view",
      "type": "function",
      "constant": true
    },
    {
      "inputs": [
        {
          "internalType": "address payable",
          "name": "_from",
          "type": "address"
        },
        {
          "internalType": "uint256",
          "name": "_propertyID",
          "type": "uint256"
        },
        {
          "internalType": "uint256",
          "name": "_numberOfshares",
          "type": "uint256"
        }
      ],
      "name": "buyShares",
      "outputs": [],
      "stateMutability": "payable",
      "type": "function",
      "payable": true
    },
    {
      "inputs": [
        {
          "internalType": "uint256",
          "name": "_rent",
          "type": "uint256"
        },
        {
          "internalType": "uint256",
          "name": "_propertyID",
          "type": "uint256"
        }
      ],
      "name": "setRentper30Day",
      "outputs": [],
      "stateMutability": "nonpayable",
      "type": "function"
    },
    {
      "inputs": [
        {
          "internalType": "uint256",
          "name": "_propertyID",
          "type": "uint256"
        }
      ],
      "name": "getSharesOfProperty",
      "outputs": [
        {
          "internalType": "address[]",
          "name": "",
          "type": "address[]"
        },
        {
          "internalType": "uint256[]",
          "name": "",
          "type": "uint256[]"
        },
        {
          "internalType": "uint256[]",
          "name": "",
          "type": "uint256[]"
        },
        {
          "internalType": "uint256[]",
          "name": "",
          "type": "uint256[]"
        }
      ],
      "stateMutability": "view",
      "type": "function",
      "constant": true
    },
    {
      "inputs": [
        {
          "internalType": "uint256",
          "name": "_propertyID",
          "type": "uint256"
        }
      ],
      "name": "applyTenant",
      "outputs": [],
      "stateMutability": "nonpayable",
      "type": "function"
    },
    {
      "inputs": [
        {
          "internalType": "uint8",
          "name": "_months",
          "type": "uint8"
        },
        {
          "internalType": "uint256",
          "name": "_propertyID",
          "type": "uint256"
        }
      ],
      "name": "payRent",
      "outputs": [],
      "stateMutability": "payable",
      "type": "function",
      "payable": true
    },
    {
      "inputs": [],
      "name": "withdraw",
      "outputs": [],
      "stateMutability": "payable",
      "type": "function",
      "payable": true
    }
  ],
  "bytecode": "0x60806040526000805533600460006101000a81548173ffffffffffffffffffffffffffffffffffffffff021916908373ffffffffffffffffffffffffffffffffffffffff1602179055503480156200005657600080fd5b50600d600160006101000a81548160ff021916908360ff16021790555060006001806101000a81548160ff021916908360ff1602179055506008600160026101000a81548160ff021916908360ff1602179055506005600460009054906101000a900473ffffffffffffffffffffffffffffffffffffffff169080600181540180825580915050600190039060005260206000200160009091909190916101000a81548173ffffffffffffffffffffffffffffffffffffffff021916908373ffffffffffffffffffffffffffffffffffffffff160217905550600160009054906101000a900460ff1660ff1662278d00620001529190620001a1565b62ffffff16600281905550620001d9565b600062ffffff82169050919050565b7f4e487b7100000000000000000000000000000000000000000000000000000000600052601260045260246000fd5b6000620001ae8262000163565b9150620001bb8362000163565b925082620001ce57620001cd62000172565b5b828204905092915050565b612c9a80620001e96000396000f3fe6080604052600436106101405760003560e01c806352ca733f116100b65780639d8e83841161006f5780639d8e838414610449578063cf35bdd014610474578063e5c42fd1146104bc578063eca116be146104e5578063ef037b901461050e578063f19e14861461054c57610140565b806352ca733f1461031357806378ae98c8146103505780637a0443231461038d578063815c9f01146103b85780638a5595bb146103f557806399c8d5561461041e57610140565b80632265641911610108578063226564191461021d5780633ccfd60b146102395780633e75e11d146102435780633ed07f871461026c578063488fef28146102955780635194c944146102d357610140565b8063047a36ca1461014557806312d43a511461016e57806317f6922214610199578063190e4c77146101b55780631d6b8b72146101e0575b600080fd5b34801561015157600080fd5b5061016c60048036038101906101679190612040565b610577565b005b34801561017a57600080fd5b5061018361068a565b60405161019091906120b6565b60405180910390f35b6101b360048036038101906101ae919061210f565b6106b0565b005b3480156101c157600080fd5b506101ca610905565b6040516101d79190612171565b60405180910390f35b3480156101ec57600080fd5b506102076004803603810190610202919061218c565b61090b565b60405161021491906120b6565b60405180910390f35b610237600480360381019061023291906121f2565b61094a565b005b61024161100f565b005b34801561024f57600080fd5b5061026a60048036038101906102659190612232565b6110e8565b005b34801561027857600080fd5b50610293600480360381019061028e91906123b8565b6111a3565b005b3480156102a157600080fd5b506102bc60048036038101906102b79190612427565b6113b1565b6040516102ca929190612482565b60405180910390f35b3480156102df57600080fd5b506102fa60048036038101906102f5919061218c565b611483565b60405161030a9493929190612627565b60405180910390f35b34801561031f57600080fd5b5061033a6004803603810190610335919061218c565b61189f565b6040516103479190612688565b60405180910390f35b34801561035c57600080fd5b50610377600480360381019061037291906126aa565b6119ca565b6040516103849190612171565b60405180910390f35b34801561039957600080fd5b506103a26119e2565b6040516103af9190612171565b60405180910390f35b3480156103c457600080fd5b506103df60048036038101906103da919061218c565b6119e8565b6040516103ec9190612171565b60405180910390f35b34801561040157600080fd5b5061041c600480360381019061041791906126d7565b611a00565b005b34801561042a57600080fd5b50610433611ab7565b6040516104409190612726565b60405180910390f35b34801561045557600080fd5b5061045e611aca565b60405161046b9190612171565b60405180910390f35b34801561048057600080fd5b5061049b6004803603810190610496919061218c565b611ad0565b6040516104b39c9b9a999897969594939291906127c9565b60405180910390f35b3480156104c857600080fd5b506104e360048036038101906104de91906126aa565b611c05565b005b3480156104f157600080fd5b5061050c6004803603810190610507919061218c565b611cc1565b005b34801561051a57600080fd5b50610535600480360381019061053091906126aa565b611d5a565b604051610543929190612482565b60405180910390f35b34801561055857600080fd5b50610561611e0d565b60405161056e9190612726565b60405180910390f35b60006003600086815260200190815260200160002090508060050160003373ffffffffffffffffffffffffffffffffffffffff1673ffffffffffffffffffffffffffffffffffffffff168152602001908152602001600020548311156105dc57600080fd5b828160090160008673ffffffffffffffffffffffffffffffffffffffff1673ffffffffffffffffffffffffffffffffffffffff168152602001908152602001600020819055508181600a0160008673ffffffffffffffffffffffffffffffffffffffff1673ffffffffffffffffffffffffffffffffffffffff168152602001908152602001600020819055508281600701600082825461067c91906128b9565b925050819055505050505050565b600460009054906101000a900473ffffffffffffffffffffffffffffffffffffffff1681565b60006106bb84611d5a565b509050806106c857600080fd5b600060036000858152602001908152602001600020905060006106eb85336113b1565b509050806107595781600401339080600181540180825580915050600190039060005260206000200160009091909190916101000a81548173ffffffffffffffffffffffffffffffffffffffff021916908373ffffffffffffffffffffffffffffffffffffffff1602179055505b81600a0160008773ffffffffffffffffffffffffffffffffffffffff1673ffffffffffffffffffffffffffffffffffffffff16815260200190815260200160002054846107a6919061290f565b341480156107f557508160090160008773ffffffffffffffffffffffffffffffffffffffff1673ffffffffffffffffffffffffffffffffffffffff168152602001908152602001600020548411155b801561082d57503373ffffffffffffffffffffffffffffffffffffffff168673ffffffffffffffffffffffffffffffffffffffff1614155b61083657600080fd5b61084285873387611e20565b50838260090160008873ffffffffffffffffffffffffffffffffffffffff1673ffffffffffffffffffffffffffffffffffffffff16815260200190815260200160002060008282546108949190612969565b92505081905550838260070160008282546108af9190612969565b925050819055508573ffffffffffffffffffffffffffffffffffffffff166108fc349081150290604051600060405180830381858888f193505050501580156108fc573d6000803e3d6000fd5b50505050505050565b60005481565b6005818154811061091b57600080fd5b906000526020600020016000915054906101000a900473ffffffffffffffffffffffffffffffffffffffff1681565b6000600360008381526020019081526020016000209050600081600b01548460ff16610976919061290f565b905060006002548560ff1661098b919061290f565b905081341480156109b5575082600d0154436109a791906128b9565b81436109b391906128b9565b105b6109be57600080fd5b600160029054906101000a900460ff1660ff168360060154346109e191906129cc565b6109eb919061290f565b600781905550600754346109ff9190612969565b60066000828254610a1091906128b9565b9250508190555060075460096000600460009054906101000a900473ffffffffffffffffffffffffffffffffffffffff1673ffffffffffffffffffffffffffffffffffffffff1673ffffffffffffffffffffffffffffffffffffffff1681526020019081526020016000206000828254610a8a91906128b9565b9250508190555060008360100160008560080160009054906101000a900473ffffffffffffffffffffffffffffffffffffffff1673ffffffffffffffffffffffffffffffffffffffff1673ffffffffffffffffffffffffffffffffffffffff16815260200190815260200160002054148015610b0957504383600f0154105b15610b91578043610b1a91906128b9565b8360100160008560080160009054906101000a900473ffffffffffffffffffffffffffffffffffffffff1673ffffffffffffffffffffffffffffffffffffffff1673ffffffffffffffffffffffffffffffffffffffff168152602001908152602001600020819055504383600e0181905550610f9a565b60008360100160008560080160009054906101000a900473ffffffffffffffffffffffffffffffffffffffff1673ffffffffffffffffffffffffffffffffffffffff1673ffffffffffffffffffffffffffffffffffffffff16815260200190815260200160002054148015610c0957504383600f0154115b15610c99578083600f0154610c1e91906128b9565b8360100160008560080160009054906101000a900473ffffffffffffffffffffffffffffffffffffffff1673ffffffffffffffffffffffffffffffffffffffff1673ffffffffffffffffffffffffffffffffffffffff1681526020019081526020016000208190555082600f015483600e0181905550610f99565b438360100160008560080160009054906101000a900473ffffffffffffffffffffffffffffffffffffffff1673ffffffffffffffffffffffffffffffffffffffff1673ffffffffffffffffffffffffffffffffffffffff168152602001908152602001600020541115610d9457808360100160008560080160009054906101000a900473ffffffffffffffffffffffffffffffffffffffff1673ffffffffffffffffffffffffffffffffffffffff1673ffffffffffffffffffffffffffffffffffffffff1681526020019081526020016000206000828254610d7b91906128b9565b9250508190555082600f015483600e0181905550610f98565b438360100160008560080160009054906101000a900473ffffffffffffffffffffffffffffffffffffffff1673ffffffffffffffffffffffffffffffffffffffff1673ffffffffffffffffffffffffffffffffffffffff16815260200190815260200160002054108015610e0b57504383600f0154115b15610e9b578083600f0154610e2091906128b9565b8360100160008560080160009054906101000a900473ffffffffffffffffffffffffffffffffffffffff1673ffffffffffffffffffffffffffffffffffffffff1673ffffffffffffffffffffffffffffffffffffffff1681526020019081526020016000208190555082600f015483600e0181905550610f97565b438360100160008560080160009054906101000a900473ffffffffffffffffffffffffffffffffffffffff1673ffffffffffffffffffffffffffffffffffffffff1673ffffffffffffffffffffffffffffffffffffffff16815260200190815260200160002054108015610f1257504383600f0154105b15610f96578043610f2391906128b9565b8360100160008560080160009054906101000a900473ffffffffffffffffffffffffffffffffffffffff1673ffffffffffffffffffffffffffffffffffffffff1673ffffffffffffffffffffffffffffffffffffffff168152602001908152602001600020819055504383600e01819055505b5b5b5b5b8260100160008460080160009054906101000a900473ffffffffffffffffffffffffffffffffffffffff1673ffffffffffffffffffffffffffffffffffffffff1673ffffffffffffffffffffffffffffffffffffffff1681526020019081526020016000205483600f01819055505050505050565b60003390506000600960003373ffffffffffffffffffffffffffffffffffffffff1673ffffffffffffffffffffffffffffffffffffffff1681526020019081526020016000205490506000600960003373ffffffffffffffffffffffffffffffffffffffff1673ffffffffffffffffffffffffffffffffffffffff168152602001908152602001600020819055508173ffffffffffffffffffffffffffffffffffffffff166108fc829081150290604051600060405180830381858888f193505050501580156110e3573d6000803e3d6000fd5b505050565b60006003600083815260200190815260200160002090503373ffffffffffffffffffffffffffffffffffffffff168160030160009054906101000a900473ffffffffffffffffffffffffffffffffffffffff1673ffffffffffffffffffffffffffffffffffffffff161461115b57600080fd5b828160080160006101000a81548173ffffffffffffffffffffffffffffffffffffffff021916908373ffffffffffffffffffffffffffffffffffffffff160217905550505050565b60006111ae82611d5a565b509050806111f1576040517f08c379a00000000000000000000000000000000000000000000000000000000081526004016111e890612a6f565b60405180910390fd5b600160008082825461120391906128b9565b925050819055506000546008600086815260200190815260200160002081905550600060036000805481526020019081526020016000209050848160010181905550600054816000018190555083816002019080519060200190611268929190611ef5565b50828160030160006101000a81548173ffffffffffffffffffffffffffffffffffffffff021916908373ffffffffffffffffffffffffffffffffffffffff1602179055506064816006018190555060648160050160008573ffffffffffffffffffffffffffffffffffffffff1673ffffffffffffffffffffffffffffffffffffffff1681526020019081526020016000208190555080600401339080600181540180825580915050600190039060005260206000200160009091909190916101000a81548173ffffffffffffffffffffffffffffffffffffffff021916908373ffffffffffffffffffffffffffffffffffffffff160217905550600b81600c0160006101000a81548160ff021916908360ff16021790555060025481600c0160009054906101000a900460ff1660ff166113a2919061290f565b81600d01819055505050505050565b600080600060036000868152602001908152602001600020905060005b8160040180549050811015611472578160040181815481106113f3576113f2612a8f565b5b9060005260206000200160009054906101000a900473ffffffffffffffffffffffffffffffffffffffff1673ffffffffffffffffffffffffffffffffffffffff168573ffffffffffffffffffffffffffffffffffffffff160361145e5760018193509350505061147c565b60018161146b91906128b9565b90506113ce565b5060008092509250505b9250929050565b60608060608060006003600087815260200190815260200160002090506000816004018054905067ffffffffffffffff8111156114c3576114c261228d565b5b6040519080825280602002602001820160405280156114f15781602001602082028036833780820191505090505b5090506000826004018054905067ffffffffffffffff8111156115175761151661228d565b5b6040519080825280602002602001820160405280156115455781602001602082028036833780820191505090505b5090506000836004018054905067ffffffffffffffff81111561156b5761156a61228d565b5b6040519080825280602002602001820160405280156115995781602001602082028036833780820191505090505b5090506000846004018054905067ffffffffffffffff8111156115bf576115be61228d565b5b6040519080825280602002602001820160405280156115ed5781602001602082028036833780820191505090505b50905060005b85600401805490508110156118865785600401818154811061161857611617612a8f565b5b9060005260206000200160009054906101000a900473ffffffffffffffffffffffffffffffffffffffff1685828151811061165657611655612a8f565b5b602002602001019073ffffffffffffffffffffffffffffffffffffffff16908173ffffffffffffffffffffffffffffffffffffffff16815250508560050160008760040183815481106116ac576116ab612a8f565b5b9060005260206000200160009054906101000a900473ffffffffffffffffffffffffffffffffffffffff1673ffffffffffffffffffffffffffffffffffffffff1673ffffffffffffffffffffffffffffffffffffffff1681526020019081526020016000205484828151811061172557611724612a8f565b5b60200260200101818152505085600901600087600401838154811061174d5761174c612a8f565b5b9060005260206000200160009054906101000a900473ffffffffffffffffffffffffffffffffffffffff1673ffffffffffffffffffffffffffffffffffffffff1673ffffffffffffffffffffffffffffffffffffffff168152602001908152602001600020548382815181106117c6576117c5612a8f565b5b60200260200101818152505085600a0160008760040183815481106117ee576117ed612a8f565b5b9060005260206000200160009054906101000a900473ffffffffffffffffffffffffffffffffffffffff1673ffffffffffffffffffffffffffffffffffffffff1673ffffffffffffffffffffffffffffffffffffffff1681526020019081526020016000205482828151811061186757611866612a8f565b5b602002602001018181525050808061187e90612abe565b9150506115f3565b5083838383985098509850985050505050509193509193565b606060006003600084815260200190815260200160002090506000816011018054905067ffffffffffffffff8111156118db576118da61228d565b5b6040519080825280602002602001820160405280156119095781602001602082028036833780820191505090505b50905060005b82601101805490508110156119bf5782601101818154811061193457611933612a8f565b5b9060005260206000200160009054906101000a900473ffffffffffffffffffffffffffffffffffffffff1682828151811061197257611971612a8f565b5b602002602001019073ffffffffffffffffffffffffffffffffffffffff16908173ffffffffffffffffffffffffffffffffffffffff168152505080806119b790612abe565b91505061190f565b508092505050919050565b60096020528060005260406000206000915090505481565b60065481565b60086020528060005260406000206000915090505481565b60006003600083815260200190815260200160002090503373ffffffffffffffffffffffffffffffffffffffff168160030160009054906101000a900473ffffffffffffffffffffffffffffffffffffffff1673ffffffffffffffffffffffffffffffffffffffff1614611aa9576040517f08c379a0000000000000000000000000000000000000000000000000000000008152600401611aa090612b52565b60405180910390fd5b8281600b0181905550505050565b600160029054906101000a900460ff1681565b60025481565b6003602052806000526040600020600091509050806000015490806001015490806002018054611aff90612ba1565b80601f0160208091040260200160405190810160405280929190818152602001828054611b2b90612ba1565b8015611b785780601f10611b4d57610100808354040283529160200191611b78565b820191906000526020600020905b815481529060010190602001808311611b5b57829003601f168201915b5050505050908060030160009054906101000a900473ffffffffffffffffffffffffffffffffffffffff16908060060154908060070154908060080160009054906101000a900473ffffffffffffffffffffffffffffffffffffffff169080600b01549080600c0160009054906101000a900460ff169080600d01549080600e01549080600f015490508c565b6000611c1082611d5a565b5090506000151581151514611c5a576040517f08c379a0000000000000000000000000000000000000000000000000000000008152600401611c5190612c44565b60405180910390fd5b6005829080600181540180825580915050600190039060005260206000200160009091909190916101000a81548173ffffffffffffffffffffffffffffffffffffffff021916908373ffffffffffffffffffffffffffffffffffffffff1602179055505050565b6000611ccc33611d5a565b50905080611cd957600080fd5b600060036000848152602001908152602001600020905080601101339080600181540180825580915050600190039060005260206000200160009091909190916101000a81548173ffffffffffffffffffffffffffffffffffffffff021916908373ffffffffffffffffffffffffffffffffffffffff160217905550505050565b60008060005b600580549050811015611dff5760058181548110611d8157611d80612a8f565b5b9060005260206000200160009054906101000a900473ffffffffffffffffffffffffffffffffffffffff1673ffffffffffffffffffffffffffffffffffffffff168473ffffffffffffffffffffffffffffffffffffffff1603611deb576001819250925050611e08565b600181611df891906128b9565b9050611d60565b50600080915091505b915091565b600160009054906101000a900460ff1681565b600080600360008781526020019081526020016000209050828160050160008773ffffffffffffffffffffffffffffffffffffffff1673ffffffffffffffffffffffffffffffffffffffff1681526020019081526020016000206000828254611e899190612969565b92505081905550828160050160008673ffffffffffffffffffffffffffffffffffffffff1673ffffffffffffffffffffffffffffffffffffffff1681526020019081526020016000206000828254611ee191906128b9565b925050819055506001915050949350505050565b828054611f0190612ba1565b90600052602060002090601f016020900481019282611f235760008555611f6a565b82601f10611f3c57805160ff1916838001178555611f6a565b82800160010185558215611f6a579182015b82811115611f69578251825591602001919060010190611f4e565b5b509050611f779190611f7b565b5090565b5b80821115611f94576000816000905550600101611f7c565b5090565b6000604051905090565b600080fd5b600080fd5b6000819050919050565b611fbf81611fac565b8114611fca57600080fd5b50565b600081359050611fdc81611fb6565b92915050565b600073ffffffffffffffffffffffffffffffffffffffff82169050919050565b600061200d82611fe2565b9050919050565b61201d81612002565b811461202857600080fd5b50565b60008135905061203a81612014565b92915050565b6000806000806080858703121561205a57612059611fa2565b5b600061206887828801611fcd565b94505060206120798782880161202b565b935050604061208a87828801611fcd565b925050606061209b87828801611fcd565b91505092959194509250565b6120b081612002565b82525050565b60006020820190506120cb60008301846120a7565b92915050565b60006120dc82611fe2565b9050919050565b6120ec816120d1565b81146120f757600080fd5b50565b600081359050612109816120e3565b92915050565b60008060006060848603121561212857612127611fa2565b5b6000612136868287016120fa565b935050602061214786828701611fcd565b925050604061215886828701611fcd565b9150509250925092565b61216b81611fac565b82525050565b60006020820190506121866000830184612162565b92915050565b6000602082840312156121a2576121a1611fa2565b5b60006121b084828501611fcd565b91505092915050565b600060ff82169050919050565b6121cf816121b9565b81146121da57600080fd5b50565b6000813590506121ec816121c6565b92915050565b6000806040838503121561220957612208611fa2565b5b6000612217858286016121dd565b925050602061222885828601611fcd565b9150509250929050565b6000806040838503121561224957612248611fa2565b5b60006122578582860161202b565b925050602061226885828601611fcd565b9150509250929050565b600080fd5b600080fd5b6000601f19601f8301169050919050565b7f4e487b7100000000000000000000000000000000000000000000000000000000600052604160045260246000fd5b6122c58261227c565b810181811067ffffffffffffffff821117156122e4576122e361228d565b5b80604052505050565b60006122f7611f98565b905061230382826122bc565b919050565b600067ffffffffffffffff8211156123235761232261228d565b5b61232c8261227c565b9050602081019050919050565b82818337600083830152505050565b600061235b61235684612308565b6122ed565b90508281526020810184848401111561237757612376612277565b5b612382848285612339565b509392505050565b600082601f83011261239f5761239e612272565b5b81356123af848260208601612348565b91505092915050565b6000806000606084860312156123d1576123d0611fa2565b5b60006123df86828701611fcd565b935050602084013567ffffffffffffffff811115612400576123ff611fa7565b5b61240c8682870161238a565b925050604061241d8682870161202b565b9150509250925092565b6000806040838503121561243e5761243d611fa2565b5b600061244c85828601611fcd565b925050602061245d8582860161202b565b9150509250929050565b60008115159050919050565b61247c81612467565b82525050565b60006040820190506124976000830185612473565b6124a46020830184612162565b9392505050565b600081519050919050565b600082825260208201905092915050565b6000819050602082019050919050565b6124e081612002565b82525050565b60006124f283836124d7565b60208301905092915050565b6000602082019050919050565b6000612516826124ab565b61252081856124b6565b935061252b836124c7565b8060005b8381101561255c57815161254388826124e6565b975061254e836124fe565b92505060018101905061252f565b5085935050505092915050565b600081519050919050565b600082825260208201905092915050565b6000819050602082019050919050565b61259e81611fac565b82525050565b60006125b08383612595565b60208301905092915050565b6000602082019050919050565b60006125d482612569565b6125de8185612574565b93506125e983612585565b8060005b8381101561261a57815161260188826125a4565b975061260c836125bc565b9250506001810190506125ed565b5085935050505092915050565b60006080820190508181036000830152612641818761250b565b9050818103602083015261265581866125c9565b9050818103604083015261266981856125c9565b9050818103606083015261267d81846125c9565b905095945050505050565b600060208201905081810360008301526126a2818461250b565b905092915050565b6000602082840312156126c0576126bf611fa2565b5b60006126ce8482850161202b565b91505092915050565b600080604083850312156126ee576126ed611fa2565b5b60006126fc85828601611fcd565b925050602061270d85828601611fcd565b9150509250929050565b612720816121b9565b82525050565b600060208201905061273b6000830184612717565b92915050565b600081519050919050565b600082825260208201905092915050565b60005b8381101561277b578082015181840152602081019050612760565b8381111561278a576000848401525b50505050565b600061279b82612741565b6127a5818561274c565b93506127b581856020860161275d565b6127be8161227c565b840191505092915050565b6000610180820190506127df600083018f612162565b6127ec602083018e612162565b81810360408301526127fe818d612790565b905061280d606083018c6120a7565b61281a608083018b612162565b61282760a083018a612162565b61283460c08301896120a7565b61284160e0830188612162565b61284f610100830187612717565b61285d610120830186612162565b61286b610140830185612162565b612879610160830184612162565b9d9c50505050505050505050505050565b7f4e487b7100000000000000000000000000000000000000000000000000000000600052601160045260246000fd5b60006128c482611fac565b91506128cf83611fac565b9250827fffffffffffffffffffffffffffffffffffffffffffffffffffffffffffffffff038211156129045761290361288a565b5b828201905092915050565b600061291a82611fac565b915061292583611fac565b9250817fffffffffffffffffffffffffffffffffffffffffffffffffffffffffffffffff048311821515161561295e5761295d61288a565b5b828202905092915050565b600061297482611fac565b915061297f83611fac565b9250828210156129925761299161288a565b5b828203905092915050565b7f4e487b7100000000000000000000000000000000000000000000000000000000600052601260045260246000fd5b60006129d782611fac565b91506129e283611fac565b9250826129f2576129f161299d565b5b828204905092915050565b7f5468652050726f7065727479206f776e6572206973206e6f742061206c69737460008201527f6564000000000000000000000000000000000000000000000000000000000000602082015250565b6000612a5960228361274c565b9150612a64826129fd565b604082019050919050565b60006020820190508181036000830152612a8881612a4c565b9050919050565b7f4e487b7100000000000000000000000000000000000000000000000000000000600052603260045260246000fd5b6000612ac982611fac565b91507fffffffffffffffffffffffffffffffffffffffffffffffffffffffffffffffff8203612afb57612afa61288a565b5b600182019050919050565b7f536f72727920796f7520617265206e6f742070726f7065727479206f776e6572600082015250565b6000612b3c60208361274c565b9150612b4782612b06565b602082019050919050565b60006020820190508181036000830152612b6b81612b2f565b9050919050565b7f4e487b7100000000000000000000000000000000000000000000000000000000600052602260045260246000fd5b60006002820490506001821680612bb957607f821691505b602082108103612bcc57612bcb612b72565b5b50919050565b7f546865205374616b65686f6c64657220697320616c7265616479206c6973746560008201527f6400000000000000000000000000000000000000000000000000000000000000602082015250565b6000612c2e60218361274c565b9150612c3982612bd2565b604082019050919050565b60006020820190508181036000830152612c5d81612c21565b905091905056fea2646970667358221220dfde56b21559f627ef7259e978bc8537e6d78acad3ba7c2c41526d645f41d23f64736f6c634300080d0033",
  "immutableReferences": {},
  "source": "// SPDX-License-Identifier: GPL-3.0\n\npragma solidity ^0.8.0;\npragma experimental ABIEncoderV2;\n\ncontract RealEstateTokenization {\n    struct Asset {\n        uint256 id;\n        uint256 propertyID;\n        string symbol;\n        address mainPropertyOwner;\n        address[] stakeholders;\n        mapping(address => uint256) shares;\n        uint256 totalSupply;\n        uint256 availableSupply;\n        address tenant;\n        mapping(address => uint256) sharesOffered; // address => numberof shares => price\n        mapping(address => uint256) shareSellPrice;\n        uint256 rentPer30Day;\n        uint8 rentalLimitMonths; // rent can be paid in advance\n        uint256 rentalLimitBlocks; //rent limit in block\n        uint256 rentalBegin; //rent begin at block number\n        uint256 occupiedUntill; // rent has paid untill block number\n        mapping(address => uint256) rentpaidUntill;\n        address[] interstedTenant;\n    }\n\n    uint256 public numOfProperties = 0;\n    uint8 public avgBlockTime; // Avg block time in seconds.\n    uint8 private decimals; // Decimals of our Shares. Has to be 0.\n    uint8 public tax; // Can Preset Tax rate in constructor. To be change by government only.\n    uint256 public blocksPer30Day;\n\n    mapping(uint256 => Asset) public assets;\n    address public gov = msg.sender;\n    address[] public stakeholders;\n    uint256 public accumulated;\n    uint256 private _taxdeduct; // ammount of tax to be paid for incoming ether.\n    mapping(uint256 => uint256) public mappingProperty; // propertyId => id in mapping\n\n    mapping(address => uint256) public revenues;\n\n    modifier onlyGov() {\n        require(msg.sender == gov);\n        _;\n    }\n\n    constructor() {\n        avgBlockTime = 13;\n        decimals = 0;\n        tax = 8;\n        stakeholders.push(gov);\n        blocksPer30Day = (60 * 60 * 24 * 30) / avgBlockTime;\n    }\n\n    function addStakeholder(address _stakeholder) public {\n        (bool _istakeholder, ) = isStakeholder(_stakeholder);\n        require(_istakeholder == false, \"The Stakeholder is already listed\");\n        stakeholders.push(_stakeholder);\n    }\n\n    function isStakeholder(address _stakeholder)\n        public\n        view\n        returns (bool, uint256)\n    {\n        for (uint256 s = 0; s < stakeholders.length; s += 1) {\n            if (_stakeholder == stakeholders[s]) return (true, s);\n        }\n\n        return (false, 0);\n    }\n\n    function isStakeholderInProperty(uint256 _propertyID, address _stakeholder)\n        public\n        view\n        returns (bool, uint256)\n    {\n        Asset storage a = assets[_propertyID];\n\n        for (uint256 s = 0; s < a.stakeholders.length; s += 1) {\n            if (_stakeholder == a.stakeholders[s]) return (true, s);\n        }\n\n        return (false, 0);\n    }\n\n    function addProperty(\n        uint256 _propertyID,\n        string memory _symbol,\n        address _mainPropertyOwner\n    ) public {\n        (bool _istakeholder, ) = isStakeholder(_mainPropertyOwner);\n        require(_istakeholder, \"The Property owner is not a listed\");\n        numOfProperties += 1;\n        mappingProperty[_propertyID] = numOfProperties;\n        Asset storage a = assets[numOfProperties];\n        a.propertyID = _propertyID;\n        a.id = numOfProperties;\n        a.symbol = _symbol;\n        a.mainPropertyOwner = _mainPropertyOwner;\n        a.totalSupply = 100;\n        a.shares[_mainPropertyOwner] = 100;\n        a.stakeholders.push(msg.sender);\n        a.rentalLimitMonths = 11;\n        a.rentalLimitBlocks = a.rentalLimitMonths * blocksPer30Day;\n    }\n\n    function seizureFrom(\n        uint256 _propertyID,\n        address _from,\n        address _to,\n        uint256 _value\n    ) private returns (bool) {\n        Asset storage a = assets[_propertyID];\n        a.shares[_from] -= _value;\n        a.shares[_to] += _value;\n        return true;\n    }\n\n    //property owner functions\n    function offerShares(\n        uint256 _propertyID,\n        address _from,\n        uint256 _sharesOffered,\n        uint256 _shareSellPrice\n    ) public {\n        Asset storage a = assets[_propertyID];\n        require(_sharesOffered <= a.shares[msg.sender]);\n        a.sharesOffered[_from] = _sharesOffered;\n        a.shareSellPrice[_from] = _shareSellPrice;\n        a.availableSupply += _sharesOffered;\n    }\n\n    function aproveTanent(address _tenant, uint256 _propertyID) public {\n        Asset storage a = assets[_propertyID];\n        require(a.mainPropertyOwner == msg.sender);\n        a.tenant = _tenant;\n    }\n\n    function getAllInterrestedTenant(uint256 _propertyID)\n        public\n        view\n        returns (address[] memory)\n    {\n        Asset storage a = assets[_propertyID];\n        address[] memory _tenants = new address[](a.interstedTenant.length);\n\n        for (uint256 i = 0; i < a.interstedTenant.length; i++) {\n            _tenants[i] = a.interstedTenant[i];\n        }\n        return _tenants;\n    }\n\n    //stakeholders functions\n    function buyShares(\n        address payable _from,\n        uint256 _propertyID,\n        uint256 _numberOfshares\n    ) public payable {\n        (bool _isStakeholder, ) = isStakeholder(_from);\n        require(_isStakeholder);\n        Asset storage a = assets[_propertyID];\n        (bool _isStakeholderInProperty, ) = isStakeholderInProperty(\n            _propertyID,\n            msg.sender\n        );\n        if (!_isStakeholderInProperty) {\n            a.stakeholders.push(msg.sender);\n        }\n\n        require(\n            msg.value == _numberOfshares * a.shareSellPrice[_from] &&\n                _numberOfshares <= a.sharesOffered[_from] &&\n                _from != msg.sender\n        );\n        seizureFrom(_propertyID, _from, msg.sender, _numberOfshares);\n        a.sharesOffered[_from] -= _numberOfshares;\n        a.availableSupply -= _numberOfshares;\n        _from.transfer(msg.value);\n    }\n\n    function setRentper30Day(uint256 _rent, uint256 _propertyID) public {\n        Asset storage a = assets[_propertyID];\n        require(\n            a.mainPropertyOwner == msg.sender,\n            \"Sorry you are not property owner\"\n        );\n        a.rentPer30Day = _rent;\n    }\n\n    function getSharesOfProperty(uint256 _propertyID)\n        public\n        view\n        returns (\n            address[] memory,\n            uint256[] memory,\n            uint256[] memory,\n            uint256[] memory\n        )\n    {\n        Asset storage a = assets[_propertyID];\n        address[] memory _stakeholders = new address[](a.stakeholders.length);\n        uint256[] memory _shares = new uint256[](a.stakeholders.length);\n        uint256[] memory _offeredShares = new uint256[](a.stakeholders.length);\n        uint256[] memory _shareSellPrice = new uint256[](a.stakeholders.length);\n\n        for (uint256 i = 0; i < a.stakeholders.length; i++) {\n            _stakeholders[i] = a.stakeholders[i];\n            _shares[i] = a.shares[a.stakeholders[i]];\n            _offeredShares[i] = a.sharesOffered[a.stakeholders[i]];\n            _shareSellPrice[i] = a.shareSellPrice[a.stakeholders[i]];\n        }\n\n        return (_stakeholders, _shares, _offeredShares, _shareSellPrice);\n    }\n\n    //tennet function\n\n    function applyTenant(uint256 _propertyID) public {\n        (bool _isStakeholder, ) = isStakeholder(msg.sender);\n        require(_isStakeholder);\n        Asset storage a = assets[_propertyID];\n        a.interstedTenant.push(msg.sender);\n    }\n\n    function payRent(uint8 _months, uint256 _propertyID) public payable {\n        Asset storage a = assets[_propertyID];\n        uint256 _rentdue = _months * a.rentPer30Day;\n        uint256 _additionalBlocks = _months * blocksPer30Day;\n        require(\n            msg.value == _rentdue &&\n                block.number + _additionalBlocks <\n                block.number + a.rentalLimitBlocks\n        );\n\n        _taxdeduct = (msg.value / a.totalSupply) * tax;\n        accumulated += (msg.value - _taxdeduct);\n        revenues[gov] += _taxdeduct;\n\n        if (\n            a.rentpaidUntill[a.tenant] == 0 && a.occupiedUntill < block.number\n        ) {\n            //hasn't rented yet & flat is empty\n            a.rentpaidUntill[a.tenant] = block.number + _additionalBlocks; //rents from now on\n            a.rentalBegin = block.number;\n        } else if (\n            a.rentpaidUntill[a.tenant] == 0 && a.occupiedUntill > block.number\n        ) {\n            //hasn't rented yet & flat is occupied\n            a.rentpaidUntill[a.tenant] = a.occupiedUntill + _additionalBlocks; //rents from when it is free\n            a.rentalBegin = a.occupiedUntill;\n        } else if (a.rentpaidUntill[a.tenant] > block.number) {\n            //is renting, contract is runing\n            a.rentpaidUntill[a.tenant] += _additionalBlocks; //rents from when it is free\n            a.rentalBegin = a.occupiedUntill;\n        } else if (\n            a.rentpaidUntill[a.tenant] < block.number &&\n            a.occupiedUntill > block.number\n        ) {\n            //has rented before & flat is occupied\n            a.rentpaidUntill[a.tenant] = a.occupiedUntill + _additionalBlocks; //rents from when it is free\n            a.rentalBegin = a.occupiedUntill;\n        } else if (\n            a.rentpaidUntill[a.tenant] < block.number &&\n            a.occupiedUntill < block.number\n        ) {\n            //has rented before & flat is empty\n            a.rentpaidUntill[a.tenant] = block.number + _additionalBlocks; //rents from now on\n            a.rentalBegin = block.number; //has lived before and flat is empgy\n        }\n        a.occupiedUntill = a.rentpaidUntill[a.tenant];\n    }\n\n    function withdraw() public payable {\n        //revenues can be withdrawn from individual shareholders (government can too withdraw its own revenues)\n        address payable user = payable(msg.sender);\n        uint256 revenue = revenues[msg.sender];\n        revenues[msg.sender] = 0;\n\n        user.transfer(revenue);\n    }\n}\n",
  "sourcePath": "F:\\Blockchain real estate\\RET\\contracts\\RealEstateTokenization.sol",
  "compiler": {
    "name": "solc",
    "version": "0.8.13+commit.abaa5c0e.Emscripten.clang"
  },
  "schemaVersion": "3.4.4",
  "updatedAt": "2022-04-30T07:32:23.460Z",
  "networkType": "ethereum",
  "devdoc": {
    "kind": "dev",
    "methods": {},
    "version": 1
  },
  "userdoc": {
    "kind": "user",
    "methods": {},
    "version": 1
  }
}