{
  "contractName": "RealEstateTokenization",
  "abi": [
    {
      "inputs": [],
      "stateMutability": "nonpayable",
      "type": "constructor"
    },
    {
      "inputs": [],
      "name": "_accumulated",
      "outputs": [
        {
          "internalType": "uint256",
          "name": "",
          "type": "uint256"
        }
      ],
      "stateMutability": "view",
      "type": "function",
      "constant": true
    },
    {
      "inputs": [
        {
          "internalType": "uint256",
          "name": "",
          "type": "uint256"
        }
      ],
      "name": "assets",
      "outputs": [
        {
          "internalType": "uint256",
          "name": "id",
          "type": "uint256"
        },
        {
          "internalType": "uint256",
          "name": "propertyID",
          "type": "uint256"
        },
        {
          "internalType": "string",
          "name": "symbol",
          "type": "string"
        },
        {
          "internalType": "address",
          "name": "mainPropertyOwner",
          "type": "address"
        },
        {
          "internalType": "uint256",
          "name": "totalSupply",
          "type": "uint256"
        },
        {
          "internalType": "uint256",
          "name": "availableSupply",
          "type": "uint256"
        },
        {
          "internalType": "address",
          "name": "tenant",
          "type": "address"
        },
        {
          "internalType": "uint256",
          "name": "rentPer30Day",
          "type": "uint256"
        },
        {
          "internalType": "uint8",
          "name": "rentalLimitMonths",
          "type": "uint8"
        },
        {
          "internalType": "uint256",
          "name": "rentalLimitBlocks",
          "type": "uint256"
        },
        {
          "internalType": "uint256",
          "name": "rentalBegin",
          "type": "uint256"
        },
        {
          "internalType": "uint256",
          "name": "occupiedUntill",
          "type": "uint256"
        }
      ],
      "stateMutability": "view",
      "type": "function",
      "constant": true
    },
    {
      "inputs": [],
      "name": "avgBlockTime",
      "outputs": [
        {
          "internalType": "uint8",
          "name": "",
          "type": "uint8"
        }
      ],
      "stateMutability": "view",
      "type": "function",
      "constant": true
    },
    {
      "inputs": [],
      "name": "blocksPer30Day",
      "outputs": [
        {
          "internalType": "uint256",
          "name": "",
          "type": "uint256"
        }
      ],
      "stateMutability": "view",
      "type": "function",
      "constant": true
    },
    {
      "inputs": [],
      "name": "gov",
      "outputs": [
        {
          "internalType": "address",
          "name": "",
          "type": "address"
        }
      ],
      "stateMutability": "view",
      "type": "function",
      "constant": true
    },
    {
      "inputs": [
        {
          "internalType": "uint256",
          "name": "",
          "type": "uint256"
        }
      ],
      "name": "mappingProperty",
      "outputs": [
        {
          "internalType": "uint256",
          "name": "",
          "type": "uint256"
        }
      ],
      "stateMutability": "view",
      "type": "function",
      "constant": true
    },
    {
      "inputs": [],
      "name": "numOfProperties",
      "outputs": [
        {
          "internalType": "uint256",
          "name": "",
          "type": "uint256"
        }
      ],
      "stateMutability": "view",
      "type": "function",
      "constant": true
    },
    {
      "inputs": [
        {
          "internalType": "address",
          "name": "",
          "type": "address"
        }
      ],
      "name": "revenues",
      "outputs": [
        {
          "internalType": "uint256",
          "name": "",
          "type": "uint256"
        }
      ],
      "stateMutability": "view",
      "type": "function",
      "constant": true
    },
    {
      "inputs": [
        {
          "internalType": "uint256",
          "name": "",
          "type": "uint256"
        }
      ],
      "name": "stakeholders",
      "outputs": [
        {
          "internalType": "address",
          "name": "",
          "type": "address"
        }
      ],
      "stateMutability": "view",
      "type": "function",
      "constant": true
    },
    {
      "inputs": [],
      "name": "tax",
      "outputs": [
        {
          "internalType": "uint8",
          "name": "",
          "type": "uint8"
        }
      ],
      "stateMutability": "view",
      "type": "function",
      "constant": true
    },
    {
      "inputs": [
        {
          "internalType": "address",
          "name": "_stakeholder",
          "type": "address"
        }
      ],
      "name": "addStakeholder",
      "outputs": [],
      "stateMutability": "nonpayable",
      "type": "function"
    },
    {
      "inputs": [
        {
          "internalType": "address",
          "name": "_stakeholder",
          "type": "address"
        }
      ],
      "name": "isStakeholder",
      "outputs": [
        {
          "internalType": "bool",
          "name": "",
          "type": "bool"
        },
        {
          "internalType": "uint256",
          "name": "",
          "type": "uint256"
        }
      ],
      "stateMutability": "view",
      "type": "function",
      "constant": true
    },
    {
      "inputs": [
        {
          "internalType": "uint256",
          "name": "_propertyID",
          "type": "uint256"
        },
        {
          "internalType": "address",
          "name": "_stakeholder",
          "type": "address"
        }
      ],
      "name": "isStakeholderInProperty",
      "outputs": [
        {
          "internalType": "bool",
          "name": "",
          "type": "bool"
        },
        {
          "internalType": "uint256",
          "name": "",
          "type": "uint256"
        }
      ],
      "stateMutability": "view",
      "type": "function",
      "constant": true
    },
    {
      "inputs": [
        {
          "internalType": "uint256",
          "name": "_propertyID",
          "type": "uint256"
        },
        {
          "internalType": "string",
          "name": "_symbol",
          "type": "string"
        },
        {
          "internalType": "address",
          "name": "_mainPropertyOwner",
          "type": "address"
        },
        {
          "internalType": "uint256",
          "name": "_totalSupply",
          "type": "uint256"
        },
        {
          "internalType": "uint256",
          "name": "_rentPer30Day",
          "type": "uint256"
        },
        {
          "internalType": "uint8",
          "name": "_rentalLimitMonths",
          "type": "uint8"
        }
      ],
      "name": "addProperty",
      "outputs": [],
      "stateMutability": "nonpayable",
      "type": "function"
    },
    {
      "inputs": [
        {
          "internalType": "uint256",
          "name": "_propertyID",
          "type": "uint256"
        },
        {
          "internalType": "uint256",
          "name": "_newRent",
          "type": "uint256"
        }
      ],
      "name": "changeRent",
      "outputs": [],
      "stateMutability": "nonpayable",
      "type": "function"
    },
    {
      "inputs": [
        {
          "internalType": "uint256",
          "name": "_propertyID",
          "type": "uint256"
        }
      ],
      "name": "numOfStakeholdersForProperty",
      "outputs": [
        {
          "internalType": "uint256",
          "name": "",
          "type": "uint256"
        }
      ],
      "stateMutability": "view",
      "type": "function",
      "constant": true
    },
    {
      "inputs": [
        {
          "internalType": "uint256",
          "name": "_propertyID",
          "type": "uint256"
        },
        {
          "internalType": "address",
          "name": "_from",
          "type": "address"
        },
        {
          "internalType": "uint256",
          "name": "_sharesOffered",
          "type": "uint256"
        },
        {
          "internalType": "uint256",
          "name": "_shareSellPrice",
          "type": "uint256"
        }
      ],
      "name": "offerShares",
      "outputs": [],
      "stateMutability": "nonpayable",
      "type": "function"
    },
    {
      "inputs": [
        {
          "internalType": "address",
          "name": "_tenant",
          "type": "address"
        },
        {
          "internalType": "uint256",
          "name": "_propertyID",
          "type": "uint256"
        }
      ],
      "name": "aproveTanent",
      "outputs": [],
      "stateMutability": "nonpayable",
      "type": "function"
    },
    {
      "inputs": [
        {
          "internalType": "uint256",
          "name": "_propertyID",
          "type": "uint256"
        }
      ],
      "name": "getAllInterrestedTenant",
      "outputs": [
        {
          "internalType": "address[]",
          "name": "",
          "type": "address[]"
        }
      ],
      "stateMutability": "view",
      "type": "function",
      "constant": true
    },
    {
      "inputs": [
        {
          "internalType": "address payable",
          "name": "_from",
          "type": "address"
        },
        {
          "internalType": "uint256",
          "name": "_propertyID",
          "type": "uint256"
        },
        {
          "internalType": "uint256",
          "name": "_numberOfshares",
          "type": "uint256"
        }
      ],
      "name": "buyShares",
      "outputs": [],
      "stateMutability": "payable",
      "type": "function",
      "payable": true
    },
    {
      "inputs": [
        {
          "internalType": "uint256",
          "name": "_rent",
          "type": "uint256"
        },
        {
          "internalType": "uint256",
          "name": "_propertyID",
          "type": "uint256"
        }
      ],
      "name": "setRentper30Day",
      "outputs": [],
      "stateMutability": "nonpayable",
      "type": "function"
    },
    {
      "inputs": [
        {
          "internalType": "uint256",
          "name": "_propertyID",
          "type": "uint256"
        }
      ],
      "name": "getSharesOfProperty",
      "outputs": [
        {
          "internalType": "address[]",
          "name": "",
          "type": "address[]"
        },
        {
          "internalType": "uint256[]",
          "name": "",
          "type": "uint256[]"
        },
        {
          "internalType": "uint256[]",
          "name": "",
          "type": "uint256[]"
        },
        {
          "internalType": "uint256[]",
          "name": "",
          "type": "uint256[]"
        }
      ],
      "stateMutability": "view",
      "type": "function",
      "constant": true
    },
    {
      "inputs": [
        {
          "internalType": "uint256",
          "name": "_propertyID",
          "type": "uint256"
        }
      ],
      "name": "applyTenant",
      "outputs": [],
      "stateMutability": "nonpayable",
      "type": "function"
    },
    {
      "inputs": [
        {
          "internalType": "uint8",
          "name": "_months",
          "type": "uint8"
        },
        {
          "internalType": "uint256",
          "name": "_propertyID",
          "type": "uint256"
        },
        {
          "internalType": "uint256",
          "name": "_numOfShareholdersForProperty",
          "type": "uint256"
        }
      ],
      "name": "payRent",
      "outputs": [],
      "stateMutability": "payable",
      "type": "function",
      "payable": true
    },
    {
      "inputs": [],
      "name": "withdraw",
      "outputs": [],
      "stateMutability": "payable",
      "type": "function",
      "payable": true
    }
  ],
  "bytecode": "0x60806040526000805533600560006101000a81548173ffffffffffffffffffffffffffffffffffffffff021916908373ffffffffffffffffffffffffffffffffffffffff1602179055503480156200005657600080fd5b50600d600160006101000a81548160ff021916908360ff16021790555060006001806101000a81548160ff021916908360ff1602179055506008600160026101000a81548160ff021916908360ff1602179055506006600560009054906101000a900473ffffffffffffffffffffffffffffffffffffffff169080600181540180825580915050600190039060005260206000200160009091909190916101000a81548173ffffffffffffffffffffffffffffffffffffffff021916908373ffffffffffffffffffffffffffffffffffffffff160217905550600160009054906101000a900460ff1660ff1662278d00620001529190620001a9565b62ffffff166002819055506000600381905550620001e1565b600062ffffff82169050919050565b7f4e487b7100000000000000000000000000000000000000000000000000000000600052601260045260246000fd5b6000620001b6826200016b565b9150620001c3836200016b565b925082620001d657620001d56200017a565b5b828204905092915050565b61308b80620001f16000396000f3fe6080604052600436106101665760003560e01c806378ae98c8116100d1578063cf35bdd01161008a578063eca116be11610064578063eca116be14610548578063ef037b9014610571578063f19e1486146105af578063f4c3d124146105da57610166565b8063cf35bdd0146104ae578063dc4c473e146104f6578063e5c42fd11461051f57610166565b806378ae98c81461038a578063815c9f01146103c75780638a5595bb1461040457806398a0ac221461042d57806399c8d556146104585780639d8e83841461048357610166565b80633ccfd60b116101235780633ccfd60b1461025f5780633e75e11d14610269578063488fef28146102925780635194c944146102d057806352ca733f146103105780636cb18c951461034d57610166565b8063047a36ca1461016b5780630a3650851461019457806312d43a51146101b057806317f69222146101db578063190e4c77146101f75780631d6b8b7214610222575b600080fd5b34801561017757600080fd5b50610192600480360381019061018d91906123b5565b610603565b005b6101ae60048036038101906101a99190612455565b610716565b005b3480156101bc57600080fd5b506101c5610f2f565b6040516101d291906124b7565b60405180910390f35b6101f560048036038101906101f09190612510565b610f55565b005b34801561020357600080fd5b5061020c6111aa565b6040516102199190612572565b60405180910390f35b34801561022e57600080fd5b506102496004803603810190610244919061258d565b6111b0565b60405161025691906124b7565b60405180910390f35b6102676111ef565b005b34801561027557600080fd5b50610290600480360381019061028b91906125ba565b6112c8565b005b34801561029e57600080fd5b506102b960048036038101906102b491906125fa565b6114a4565b6040516102c7929190612655565b60405180910390f35b3480156102dc57600080fd5b506102f760048036038101906102f2919061258d565b611576565b60405161030794939291906127fa565b60405180910390f35b34801561031c57600080fd5b506103376004803603810190610332919061258d565b611992565b604051610344919061285b565b60405180910390f35b34801561035957600080fd5b50610374600480360381019061036f919061258d565b611abd565b6040516103819190612572565b60405180910390f35b34801561039657600080fd5b506103b160048036038101906103ac919061287d565b611ae5565b6040516103be9190612572565b60405180910390f35b3480156103d357600080fd5b506103ee60048036038101906103e9919061258d565b611afd565b6040516103fb9190612572565b60405180910390f35b34801561041057600080fd5b5061042b600480360381019061042691906128aa565b611b15565b005b34801561043957600080fd5b50610442611bcc565b60405161044f9190612572565b60405180910390f35b34801561046457600080fd5b5061046d611bd2565b60405161047a91906128f9565b60405180910390f35b34801561048f57600080fd5b50610498611be5565b6040516104a59190612572565b60405180910390f35b3480156104ba57600080fd5b506104d560048036038101906104d0919061258d565b611beb565b6040516104ed9c9b9a999897969594939291906129ad565b60405180910390f35b34801561050257600080fd5b5061051d60048036038101906105189190612ba3565b611d20565b005b34801561052b57600080fd5b506105466004803603810190610541919061287d565b611f55565b005b34801561055457600080fd5b5061056f600480360381019061056a919061258d565b612011565b005b34801561057d57600080fd5b506105986004803603810190610593919061287d565b6120aa565b6040516105a6929190612655565b60405180910390f35b3480156105bb57600080fd5b506105c461215d565b6040516105d191906128f9565b60405180910390f35b3480156105e657600080fd5b5061060160048036038101906105fc91906128aa565b612170565b005b60006004600086815260200190815260200160002090508060050160003373ffffffffffffffffffffffffffffffffffffffff1673ffffffffffffffffffffffffffffffffffffffff1681526020019081526020016000205483111561066857600080fd5b828160090160008673ffffffffffffffffffffffffffffffffffffffff1673ffffffffffffffffffffffffffffffffffffffff168152602001908152602001600020819055508181600a0160008673ffffffffffffffffffffffffffffffffffffffff1673ffffffffffffffffffffffffffffffffffffffff16815260200190815260200160002081905550828160070160008282546107089190612c7b565b925050819055505050505050565b6000600460008481526020019081526020016000209050600081600b01548560ff166107429190612cd1565b905060006002548660ff166107579190612cd1565b90508134148015610781575082600d0154436107739190612c7b565b814361077f9190612c7b565b105b61078a57600080fd5b6000600160029054906101000a900460ff1660ff168460060154346107af9190612d5a565b6107b99190612cd1565b905080346107c79190612d8b565b6003819055508060086000600560009054906101000a900473ffffffffffffffffffffffffffffffffffffffff1673ffffffffffffffffffffffffffffffffffffffff1673ffffffffffffffffffffffffffffffffffffffff168152602001908152602001600020600082825461083e9190612c7b565b9250508190555060008060008060009050600090505b888110156109a35787600401818154811061087257610871612dbf565b5b9060005260206000200160009054906101000a900473ffffffffffffffffffffffffffffffffffffffff1693508760050160008573ffffffffffffffffffffffffffffffffffffffff1673ffffffffffffffffffffffffffffffffffffffff1681526020019081526020016000205492508288600601546003546108f69190612d5a565b6109009190612cd1565b915081600860008673ffffffffffffffffffffffffffffffffffffffff1673ffffffffffffffffffffffffffffffffffffffff1681526020019081526020016000205461094d9190612c7b565b600860008673ffffffffffffffffffffffffffffffffffffffff1673ffffffffffffffffffffffffffffffffffffffff16815260200190815260200160002081905550808061099b90612dee565b915050610854565b600060038190555060008860100160008a60080160009054906101000a900473ffffffffffffffffffffffffffffffffffffffff1673ffffffffffffffffffffffffffffffffffffffff1673ffffffffffffffffffffffffffffffffffffffff16815260200190815260200160002054148015610a2357504388600f0154105b15610aab578543610a349190612c7b565b8860100160008a60080160009054906101000a900473ffffffffffffffffffffffffffffffffffffffff1673ffffffffffffffffffffffffffffffffffffffff1673ffffffffffffffffffffffffffffffffffffffff168152602001908152602001600020819055504388600e0181905550610eb4565b60008860100160008a60080160009054906101000a900473ffffffffffffffffffffffffffffffffffffffff1673ffffffffffffffffffffffffffffffffffffffff1673ffffffffffffffffffffffffffffffffffffffff16815260200190815260200160002054148015610b2357504388600f0154115b15610bb3578588600f0154610b389190612c7b565b8860100160008a60080160009054906101000a900473ffffffffffffffffffffffffffffffffffffffff1673ffffffffffffffffffffffffffffffffffffffff1673ffffffffffffffffffffffffffffffffffffffff1681526020019081526020016000208190555087600f015488600e0181905550610eb3565b438860100160008a60080160009054906101000a900473ffffffffffffffffffffffffffffffffffffffff1673ffffffffffffffffffffffffffffffffffffffff1673ffffffffffffffffffffffffffffffffffffffff168152602001908152602001600020541115610cae57858860100160008a60080160009054906101000a900473ffffffffffffffffffffffffffffffffffffffff1673ffffffffffffffffffffffffffffffffffffffff1673ffffffffffffffffffffffffffffffffffffffff1681526020019081526020016000206000828254610c959190612c7b565b9250508190555087600f015488600e0181905550610eb2565b438860100160008a60080160009054906101000a900473ffffffffffffffffffffffffffffffffffffffff1673ffffffffffffffffffffffffffffffffffffffff1673ffffffffffffffffffffffffffffffffffffffff16815260200190815260200160002054108015610d2557504388600f0154115b15610db5578588600f0154610d3a9190612c7b565b8860100160008a60080160009054906101000a900473ffffffffffffffffffffffffffffffffffffffff1673ffffffffffffffffffffffffffffffffffffffff1673ffffffffffffffffffffffffffffffffffffffff1681526020019081526020016000208190555087600f015488600e0181905550610eb1565b438860100160008a60080160009054906101000a900473ffffffffffffffffffffffffffffffffffffffff1673ffffffffffffffffffffffffffffffffffffffff1673ffffffffffffffffffffffffffffffffffffffff16815260200190815260200160002054108015610e2c57504388600f0154105b15610eb0578543610e3d9190612c7b565b8860100160008a60080160009054906101000a900473ffffffffffffffffffffffffffffffffffffffff1673ffffffffffffffffffffffffffffffffffffffff1673ffffffffffffffffffffffffffffffffffffffff168152602001908152602001600020819055504388600e01819055505b5b5b5b5b8760100160008960080160009054906101000a900473ffffffffffffffffffffffffffffffffffffffff1673ffffffffffffffffffffffffffffffffffffffff1673ffffffffffffffffffffffffffffffffffffffff1681526020019081526020016000205488600f01819055505050505050505050505050565b600560009054906101000a900473ffffffffffffffffffffffffffffffffffffffff1681565b6000610f60846120aa565b50905080610f6d57600080fd5b60006004600085815260200190815260200160002090506000610f9085336114a4565b50905080610ffe5781600401339080600181540180825580915050600190039060005260206000200160009091909190916101000a81548173ffffffffffffffffffffffffffffffffffffffff021916908373ffffffffffffffffffffffffffffffffffffffff1602179055505b81600a0160008773ffffffffffffffffffffffffffffffffffffffff1673ffffffffffffffffffffffffffffffffffffffff168152602001908152602001600020548461104b9190612cd1565b3414801561109a57508160090160008773ffffffffffffffffffffffffffffffffffffffff1673ffffffffffffffffffffffffffffffffffffffff168152602001908152602001600020548411155b80156110d257503373ffffffffffffffffffffffffffffffffffffffff168673ffffffffffffffffffffffffffffffffffffffff1614155b6110db57600080fd5b6110e785873387612195565b50838260090160008873ffffffffffffffffffffffffffffffffffffffff1673ffffffffffffffffffffffffffffffffffffffff16815260200190815260200160002060008282546111399190612d8b565b92505081905550838260070160008282546111549190612d8b565b925050819055508573ffffffffffffffffffffffffffffffffffffffff166108fc349081150290604051600060405180830381858888f193505050501580156111a1573d6000803e3d6000fd5b50505050505050565b60005481565b600681815481106111c057600080fd5b906000526020600020016000915054906101000a900473ffffffffffffffffffffffffffffffffffffffff1681565b60003390506000600860003373ffffffffffffffffffffffffffffffffffffffff1673ffffffffffffffffffffffffffffffffffffffff1681526020019081526020016000205490506000600860003373ffffffffffffffffffffffffffffffffffffffff1673ffffffffffffffffffffffffffffffffffffffff168152602001908152602001600020819055508173ffffffffffffffffffffffffffffffffffffffff166108fc829081150290604051600060405180830381858888f193505050501580156112c3573d6000803e3d6000fd5b505050565b60006004600083815260200190815260200160002090503373ffffffffffffffffffffffffffffffffffffffff168160030160009054906101000a900473ffffffffffffffffffffffffffffffffffffffff1673ffffffffffffffffffffffffffffffffffffffff161461133b57600080fd5b828160080160006101000a81548173ffffffffffffffffffffffffffffffffffffffff021916908373ffffffffffffffffffffffffffffffffffffffff16021790555060005b816011018054905081101561149e5781601101600183601101805490506113a89190612d8b565b815481106113b9576113b8612dbf565b5b9060005260206000200160009054906101000a900473ffffffffffffffffffffffffffffffffffffffff168260110182815481106113fa576113f9612dbf565b5b9060005260206000200160006101000a81548173ffffffffffffffffffffffffffffffffffffffff021916908373ffffffffffffffffffffffffffffffffffffffff1602179055508160110180548061145657611455612e36565b5b6001900381819060005260206000200160006101000a81549073ffffffffffffffffffffffffffffffffffffffff02191690559055808061149690612dee565b915050611381565b50505050565b600080600060046000868152602001908152602001600020905060005b8160040180549050811015611565578160040181815481106114e6576114e5612dbf565b5b9060005260206000200160009054906101000a900473ffffffffffffffffffffffffffffffffffffffff1673ffffffffffffffffffffffffffffffffffffffff168573ffffffffffffffffffffffffffffffffffffffff16036115515760018193509350505061156f565b60018161155e9190612c7b565b90506114c1565b5060008092509250505b9250929050565b60608060608060006004600087815260200190815260200160002090506000816004018054905067ffffffffffffffff8111156115b6576115b5612a78565b5b6040519080825280602002602001820160405280156115e45781602001602082028036833780820191505090505b5090506000826004018054905067ffffffffffffffff81111561160a57611609612a78565b5b6040519080825280602002602001820160405280156116385781602001602082028036833780820191505090505b5090506000836004018054905067ffffffffffffffff81111561165e5761165d612a78565b5b60405190808252806020026020018201604052801561168c5781602001602082028036833780820191505090505b5090506000846004018054905067ffffffffffffffff8111156116b2576116b1612a78565b5b6040519080825280602002602001820160405280156116e05781602001602082028036833780820191505090505b50905060005b85600401805490508110156119795785600401818154811061170b5761170a612dbf565b5b9060005260206000200160009054906101000a900473ffffffffffffffffffffffffffffffffffffffff1685828151811061174957611748612dbf565b5b602002602001019073ffffffffffffffffffffffffffffffffffffffff16908173ffffffffffffffffffffffffffffffffffffffff168152505085600501600087600401838154811061179f5761179e612dbf565b5b9060005260206000200160009054906101000a900473ffffffffffffffffffffffffffffffffffffffff1673ffffffffffffffffffffffffffffffffffffffff1673ffffffffffffffffffffffffffffffffffffffff1681526020019081526020016000205484828151811061181857611817612dbf565b5b6020026020010181815250508560090160008760040183815481106118405761183f612dbf565b5b9060005260206000200160009054906101000a900473ffffffffffffffffffffffffffffffffffffffff1673ffffffffffffffffffffffffffffffffffffffff1673ffffffffffffffffffffffffffffffffffffffff168152602001908152602001600020548382815181106118b9576118b8612dbf565b5b60200260200101818152505085600a0160008760040183815481106118e1576118e0612dbf565b5b9060005260206000200160009054906101000a900473ffffffffffffffffffffffffffffffffffffffff1673ffffffffffffffffffffffffffffffffffffffff1673ffffffffffffffffffffffffffffffffffffffff1681526020019081526020016000205482828151811061195a57611959612dbf565b5b602002602001018181525050808061197190612dee565b9150506116e6565b5083838383985098509850985050505050509193509193565b606060006004600084815260200190815260200160002090506000816011018054905067ffffffffffffffff8111156119ce576119cd612a78565b5b6040519080825280602002602001820160405280156119fc5781602001602082028036833780820191505090505b50905060005b8260110180549050811015611ab257826011018181548110611a2757611a26612dbf565b5b9060005260206000200160009054906101000a900473ffffffffffffffffffffffffffffffffffffffff16828281518110611a6557611a64612dbf565b5b602002602001019073ffffffffffffffffffffffffffffffffffffffff16908173ffffffffffffffffffffffffffffffffffffffff16815250508080611aaa90612dee565b915050611a02565b508092505050919050565b6000806004600084815260200190815260200160002090508060040180549050915050919050565b60086020528060005260406000206000915090505481565b60076020528060005260406000206000915090505481565b60006004600083815260200190815260200160002090503373ffffffffffffffffffffffffffffffffffffffff168160030160009054906101000a900473ffffffffffffffffffffffffffffffffffffffff1673ffffffffffffffffffffffffffffffffffffffff1614611bbe576040517f08c379a0000000000000000000000000000000000000000000000000000000008152600401611bb590612eb1565b60405180910390fd5b8281600b0181905550505050565b60035481565b600160029054906101000a900460ff1681565b60025481565b6004602052806000526040600020600091509050806000015490806001015490806002018054611c1a90612f00565b80601f0160208091040260200160405190810160405280929190818152602001828054611c4690612f00565b8015611c935780601f10611c6857610100808354040283529160200191611c93565b820191906000526020600020905b815481529060010190602001808311611c7657829003601f168201915b5050505050908060030160009054906101000a900473ffffffffffffffffffffffffffffffffffffffff16908060060154908060070154908060080160009054906101000a900473ffffffffffffffffffffffffffffffffffffffff169080600b01549080600c0160009054906101000a900460ff169080600d01549080600e01549080600f015490508c565b6000611d2b856120aa565b50905080611d6e576040517f08c379a0000000000000000000000000000000000000000000000000000000008152600401611d6590612fa3565b60405180910390fd5b6001600080828254611d809190612c7b565b925050819055506000546007600089815260200190815260200160002081905550600060046000805481526020019081526020016000209050878160010181905550600054816000018190555086816002019080519060200190611de592919061226a565b50858160030160006101000a81548173ffffffffffffffffffffffffffffffffffffffff021916908373ffffffffffffffffffffffffffffffffffffffff160217905550848160060181905550848160050160008873ffffffffffffffffffffffffffffffffffffffff1673ffffffffffffffffffffffffffffffffffffffff1681526020019081526020016000208190555080600401339080600181540180825580915050600190039060005260206000200160009091909190916101000a81548173ffffffffffffffffffffffffffffffffffffffff021916908373ffffffffffffffffffffffffffffffffffffffff160217905550600b81600c0160006101000a81548160ff021916908360ff16021790555060025481600c0160009054906101000a900460ff1660ff16611f1d9190612cd1565b81600d01819055508381600b01819055508281600c0160006101000a81548160ff021916908360ff1602179055505050505050505050565b6000611f60826120aa565b5090506000151581151514611faa576040517f08c379a0000000000000000000000000000000000000000000000000000000008152600401611fa190613035565b60405180910390fd5b6006829080600181540180825580915050600190039060005260206000200160009091909190916101000a81548173ffffffffffffffffffffffffffffffffffffffff021916908373ffffffffffffffffffffffffffffffffffffffff1602179055505050565b600061201c336120aa565b5090508061202957600080fd5b600060046000848152602001908152602001600020905080601101339080600181540180825580915050600190039060005260206000200160009091909190916101000a81548173ffffffffffffffffffffffffffffffffffffffff021916908373ffffffffffffffffffffffffffffffffffffffff160217905550505050565b60008060005b60068054905081101561214f57600681815481106120d1576120d0612dbf565b5b9060005260206000200160009054906101000a900473ffffffffffffffffffffffffffffffffffffffff1673ffffffffffffffffffffffffffffffffffffffff168473ffffffffffffffffffffffffffffffffffffffff160361213b576001819250925050612158565b6001816121489190612c7b565b90506120b0565b50600080915091505b915091565b600160009054906101000a900460ff1681565b60006004600084815260200190815260200160002090508181600b0181905550505050565b600080600460008781526020019081526020016000209050828160050160008773ffffffffffffffffffffffffffffffffffffffff1673ffffffffffffffffffffffffffffffffffffffff16815260200190815260200160002060008282546121fe9190612d8b565b92505081905550828160050160008673ffffffffffffffffffffffffffffffffffffffff1673ffffffffffffffffffffffffffffffffffffffff16815260200190815260200160002060008282546122569190612c7b565b925050819055506001915050949350505050565b82805461227690612f00565b90600052602060002090601f01602090048101928261229857600085556122df565b82601f106122b157805160ff19168380011785556122df565b828001600101855582156122df579182015b828111156122de5782518255916020019190600101906122c3565b5b5090506122ec91906122f0565b5090565b5b808211156123095760008160009055506001016122f1565b5090565b6000604051905090565b600080fd5b600080fd5b6000819050919050565b61233481612321565b811461233f57600080fd5b50565b6000813590506123518161232b565b92915050565b600073ffffffffffffffffffffffffffffffffffffffff82169050919050565b600061238282612357565b9050919050565b61239281612377565b811461239d57600080fd5b50565b6000813590506123af81612389565b92915050565b600080600080608085870312156123cf576123ce612317565b5b60006123dd87828801612342565b94505060206123ee878288016123a0565b93505060406123ff87828801612342565b925050606061241087828801612342565b91505092959194509250565b600060ff82169050919050565b6124328161241c565b811461243d57600080fd5b50565b60008135905061244f81612429565b92915050565b60008060006060848603121561246e5761246d612317565b5b600061247c86828701612440565b935050602061248d86828701612342565b925050604061249e86828701612342565b9150509250925092565b6124b181612377565b82525050565b60006020820190506124cc60008301846124a8565b92915050565b60006124dd82612357565b9050919050565b6124ed816124d2565b81146124f857600080fd5b50565b60008135905061250a816124e4565b92915050565b60008060006060848603121561252957612528612317565b5b6000612537868287016124fb565b935050602061254886828701612342565b925050604061255986828701612342565b9150509250925092565b61256c81612321565b82525050565b60006020820190506125876000830184612563565b92915050565b6000602082840312156125a3576125a2612317565b5b60006125b184828501612342565b91505092915050565b600080604083850312156125d1576125d0612317565b5b60006125df858286016123a0565b92505060206125f085828601612342565b9150509250929050565b6000806040838503121561261157612610612317565b5b600061261f85828601612342565b9250506020612630858286016123a0565b9150509250929050565b60008115159050919050565b61264f8161263a565b82525050565b600060408201905061266a6000830185612646565b6126776020830184612563565b9392505050565b600081519050919050565b600082825260208201905092915050565b6000819050602082019050919050565b6126b381612377565b82525050565b60006126c583836126aa565b60208301905092915050565b6000602082019050919050565b60006126e98261267e565b6126f38185612689565b93506126fe8361269a565b8060005b8381101561272f57815161271688826126b9565b9750612721836126d1565b925050600181019050612702565b5085935050505092915050565b600081519050919050565b600082825260208201905092915050565b6000819050602082019050919050565b61277181612321565b82525050565b60006127838383612768565b60208301905092915050565b6000602082019050919050565b60006127a78261273c565b6127b18185612747565b93506127bc83612758565b8060005b838110156127ed5781516127d48882612777565b97506127df8361278f565b9250506001810190506127c0565b5085935050505092915050565b6000608082019050818103600083015261281481876126de565b90508181036020830152612828818661279c565b9050818103604083015261283c818561279c565b90508181036060830152612850818461279c565b905095945050505050565b6000602082019050818103600083015261287581846126de565b905092915050565b60006020828403121561289357612892612317565b5b60006128a1848285016123a0565b91505092915050565b600080604083850312156128c1576128c0612317565b5b60006128cf85828601612342565b92505060206128e085828601612342565b9150509250929050565b6128f38161241c565b82525050565b600060208201905061290e60008301846128ea565b92915050565b600081519050919050565b600082825260208201905092915050565b60005b8381101561294e578082015181840152602081019050612933565b8381111561295d576000848401525b50505050565b6000601f19601f8301169050919050565b600061297f82612914565b612989818561291f565b9350612999818560208601612930565b6129a281612963565b840191505092915050565b6000610180820190506129c3600083018f612563565b6129d0602083018e612563565b81810360408301526129e2818d612974565b90506129f1606083018c6124a8565b6129fe608083018b612563565b612a0b60a083018a612563565b612a1860c08301896124a8565b612a2560e0830188612563565b612a336101008301876128ea565b612a41610120830186612563565b612a4f610140830185612563565b612a5d610160830184612563565b9d9c50505050505050505050505050565b600080fd5b600080fd5b7f4e487b7100000000000000000000000000000000000000000000000000000000600052604160045260246000fd5b612ab082612963565b810181811067ffffffffffffffff82111715612acf57612ace612a78565b5b80604052505050565b6000612ae261230d565b9050612aee8282612aa7565b919050565b600067ffffffffffffffff821115612b0e57612b0d612a78565b5b612b1782612963565b9050602081019050919050565b82818337600083830152505050565b6000612b46612b4184612af3565b612ad8565b905082815260208101848484011115612b6257612b61612a73565b5b612b6d848285612b24565b509392505050565b600082601f830112612b8a57612b89612a6e565b5b8135612b9a848260208601612b33565b91505092915050565b60008060008060008060c08789031215612bc057612bbf612317565b5b6000612bce89828a01612342565b965050602087013567ffffffffffffffff811115612bef57612bee61231c565b5b612bfb89828a01612b75565b9550506040612c0c89828a016123a0565b9450506060612c1d89828a01612342565b9350506080612c2e89828a01612342565b92505060a0612c3f89828a01612440565b9150509295509295509295565b7f4e487b7100000000000000000000000000000000000000000000000000000000600052601160045260246000fd5b6000612c8682612321565b9150612c9183612321565b9250827fffffffffffffffffffffffffffffffffffffffffffffffffffffffffffffffff03821115612cc657612cc5612c4c565b5b828201905092915050565b6000612cdc82612321565b9150612ce783612321565b9250817fffffffffffffffffffffffffffffffffffffffffffffffffffffffffffffffff0483118215151615612d2057612d1f612c4c565b5b828202905092915050565b7f4e487b7100000000000000000000000000000000000000000000000000000000600052601260045260246000fd5b6000612d6582612321565b9150612d7083612321565b925082612d8057612d7f612d2b565b5b828204905092915050565b6000612d9682612321565b9150612da183612321565b925082821015612db457612db3612c4c565b5b828203905092915050565b7f4e487b7100000000000000000000000000000000000000000000000000000000600052603260045260246000fd5b6000612df982612321565b91507fffffffffffffffffffffffffffffffffffffffffffffffffffffffffffffffff8203612e2b57612e2a612c4c565b5b600182019050919050565b7f4e487b7100000000000000000000000000000000000000000000000000000000600052603160045260246000fd5b7f536f72727920796f7520617265206e6f742070726f7065727479206f776e6572600082015250565b6000612e9b60208361291f565b9150612ea682612e65565b602082019050919050565b60006020820190508181036000830152612eca81612e8e565b9050919050565b7f4e487b7100000000000000000000000000000000000000000000000000000000600052602260045260246000fd5b60006002820490506001821680612f1857607f821691505b602082108103612f2b57612f2a612ed1565b5b50919050565b7f5468652050726f7065727479206f776e6572206973206e6f742061206c69737460008201527f6564000000000000000000000000000000000000000000000000000000000000602082015250565b6000612f8d60228361291f565b9150612f9882612f31565b604082019050919050565b60006020820190508181036000830152612fbc81612f80565b9050919050565b7f546865205374616b65686f6c64657220697320616c7265616479206c6973746560008201527f6400000000000000000000000000000000000000000000000000000000000000602082015250565b600061301f60218361291f565b915061302a82612fc3565b604082019050919050565b6000602082019050818103600083015261304e81613012565b905091905056fea2646970667358221220e9bf8b8c458c731ce3cc64efd0d8556f70c02a4a850210917f24581cb386495e64736f6c634300080d0033",
  "immutableReferences": {},
  "source": "// SPDX-License-Identifier: GPL-3.0\n\npragma solidity ^0.8.0;\npragma experimental ABIEncoderV2;\n\ncontract RealEstateTokenization {\n    struct Asset {\n        uint256 id;\n        uint256 propertyID;\n        string symbol;\n        address mainPropertyOwner;\n        address[] stakeholders;\n        mapping(address => uint256) shares;\n        uint256 totalSupply;\n        uint256 availableSupply;\n        address tenant;\n        mapping(address => uint256) sharesOffered; // address => numberof shares => price\n        mapping(address => uint256) shareSellPrice;\n        uint256 rentPer30Day;\n        uint8 rentalLimitMonths; // rent can be paid in advance\n        uint256 rentalLimitBlocks; //rent limit in block\n        uint256 rentalBegin; //rent begin at block number\n        uint256 occupiedUntill; // rent has paid untill block number\n        mapping(address => uint256) rentpaidUntill;\n        address[] interstedTenant;\n    }\n\n    uint256 public numOfProperties = 0;\n    uint8 public avgBlockTime; // Avg block time in seconds.\n    uint8 private decimals; // Decimals of our Shares. Has to be 0.\n    uint8 public tax; // Can Preset Tax rate in constructor. To be change by government only.\n    uint256 public blocksPer30Day;\n    uint256 public _accumulated; //store accumulated rent\n\n    mapping(uint256 => Asset) public assets;\n    address public gov = msg.sender;\n    address[] public stakeholders;\n\n    mapping(uint256 => uint256) public mappingProperty; // propertyId => id in mapping\n\n    mapping(address => uint256) public revenues;\n\n    modifier onlyGov() {\n        require(msg.sender == gov);\n        _;\n    }\n\n    constructor() {\n        avgBlockTime = 13;\n        decimals = 0;\n        tax = 8;\n        stakeholders.push(gov);\n        blocksPer30Day = (60 * 60 * 24 * 30) / avgBlockTime;\n        _accumulated = 0;\n    }\n\n    function addStakeholder(address _stakeholder) public {\n        (bool _istakeholder, ) = isStakeholder(_stakeholder);\n        require(_istakeholder == false, \"The Stakeholder is already listed\");\n        stakeholders.push(_stakeholder);\n    }\n\n    function isStakeholder(address _stakeholder)\n        public\n        view\n        returns (bool, uint256)\n    {\n        for (uint256 s = 0; s < stakeholders.length; s += 1) {\n            if (_stakeholder == stakeholders[s]) return (true, s);\n        }\n\n        return (false, 0);\n    }\n\n    function isStakeholderInProperty(uint256 _propertyID, address _stakeholder)\n        public\n        view\n        returns (bool, uint256)\n    {\n        Asset storage a = assets[_propertyID];\n\n        for (uint256 s = 0; s < a.stakeholders.length; s += 1) {\n            if (_stakeholder == a.stakeholders[s]) return (true, s);\n        }\n\n        return (false, 0);\n    }\n\n    function addProperty(\n        uint256 _propertyID,\n        string memory _symbol,\n        address _mainPropertyOwner,\n        uint256 _totalSupply,\n        uint256 _rentPer30Day,\n        uint8 _rentalLimitMonths\n    ) public {\n        (bool _istakeholder, ) = isStakeholder(_mainPropertyOwner);\n        require(_istakeholder, \"The Property owner is not a listed\");\n        numOfProperties += 1;\n        mappingProperty[_propertyID] = numOfProperties;\n        Asset storage a = assets[numOfProperties];\n        a.propertyID = _propertyID;\n        a.id = numOfProperties;\n        a.symbol = _symbol;\n        a.mainPropertyOwner = _mainPropertyOwner;\n        a.totalSupply = _totalSupply;\n        a.shares[_mainPropertyOwner] = _totalSupply;\n        a.stakeholders.push(msg.sender);\n        a.rentalLimitMonths = 11;\n        a.rentalLimitBlocks = a.rentalLimitMonths * blocksPer30Day;\n        a.rentPer30Day = _rentPer30Day;\n        a.rentalLimitMonths = _rentalLimitMonths;\n    }\n\n    function seizureFrom(\n        uint256 _propertyID,\n        address _from,\n        address _to,\n        uint256 _value\n    ) private returns (bool) {\n        Asset storage a = assets[_propertyID];\n        a.shares[_from] -= _value;\n        a.shares[_to] += _value;\n        return true;\n    }\n\n    //property owner functions\n    function changeRent(uint256 _propertyID, uint256 _newRent) public {\n        Asset storage a = assets[_propertyID];\n        a.rentPer30Day = _newRent;\n    }\n\n    function numOfStakeholdersForProperty(uint256 _propertyID)\n        public\n        view\n        returns (uint256)\n    {\n        Asset storage a = assets[_propertyID];\n        return a.stakeholders.length;\n    }\n\n    function offerShares(\n        uint256 _propertyID,\n        address _from,\n        uint256 _sharesOffered,\n        uint256 _shareSellPrice\n    ) public {\n        Asset storage a = assets[_propertyID];\n        require(_sharesOffered <= a.shares[msg.sender]);\n        a.sharesOffered[_from] = _sharesOffered;\n        a.shareSellPrice[_from] = _shareSellPrice;\n        a.availableSupply += _sharesOffered;\n    }\n\n    function aproveTanent(address _tenant, uint256 _propertyID) public {\n        Asset storage a = assets[_propertyID];\n        require(a.mainPropertyOwner == msg.sender);\n        a.tenant = _tenant;\n        for (uint256 i = 0; i < a.interstedTenant.length; i++) {\n            a.interstedTenant[i] = a.interstedTenant[\n                a.interstedTenant.length - 1\n            ];\n            a.interstedTenant.pop();\n        }\n    }\n\n    function getAllInterrestedTenant(uint256 _propertyID)\n        public\n        view\n        returns (address[] memory)\n    {\n        Asset storage a = assets[_propertyID];\n        address[] memory _tenants = new address[](a.interstedTenant.length);\n\n        for (uint256 i = 0; i < a.interstedTenant.length; i++) {\n            _tenants[i] = a.interstedTenant[i];\n        }\n        return _tenants;\n    }\n\n    //stakeholders functions\n    function buyShares(\n        address payable _from,\n        uint256 _propertyID,\n        uint256 _numberOfshares\n    ) public payable {\n        (bool _isStakeholder, ) = isStakeholder(_from);\n        require(_isStakeholder);\n        Asset storage a = assets[_propertyID];\n        (bool _isStakeholderInProperty, ) = isStakeholderInProperty(\n            _propertyID,\n            msg.sender\n        );\n        if (!_isStakeholderInProperty) {\n            a.stakeholders.push(msg.sender);\n        }\n\n        require(\n            msg.value == _numberOfshares * a.shareSellPrice[_from] &&\n                _numberOfshares <= a.sharesOffered[_from] &&\n                _from != msg.sender\n        );\n        seizureFrom(_propertyID, _from, msg.sender, _numberOfshares);\n        a.sharesOffered[_from] -= _numberOfshares;\n        a.availableSupply -= _numberOfshares;\n        _from.transfer(msg.value);\n    }\n\n    function setRentper30Day(uint256 _rent, uint256 _propertyID) public {\n        Asset storage a = assets[_propertyID];\n        require(\n            a.mainPropertyOwner == msg.sender,\n            \"Sorry you are not property owner\"\n        );\n        a.rentPer30Day = _rent;\n    }\n\n    function getSharesOfProperty(uint256 _propertyID)\n        public\n        view\n        returns (\n            address[] memory,\n            uint256[] memory,\n            uint256[] memory,\n            uint256[] memory\n        )\n    {\n        Asset storage a = assets[_propertyID];\n        address[] memory _stakeholders = new address[](a.stakeholders.length);\n        uint256[] memory _shares = new uint256[](a.stakeholders.length);\n        uint256[] memory _offeredShares = new uint256[](a.stakeholders.length);\n        uint256[] memory _shareSellPrice = new uint256[](a.stakeholders.length);\n\n        for (uint256 i = 0; i < a.stakeholders.length; i++) {\n            _stakeholders[i] = a.stakeholders[i];\n            _shares[i] = a.shares[a.stakeholders[i]];\n            _offeredShares[i] = a.sharesOffered[a.stakeholders[i]];\n            _shareSellPrice[i] = a.shareSellPrice[a.stakeholders[i]];\n        }\n\n        return (_stakeholders, _shares, _offeredShares, _shareSellPrice);\n    }\n\n    //tennet function\n    function applyTenant(uint256 _propertyID) public {\n        (bool _isStakeholder, ) = isStakeholder(msg.sender);\n        require(_isStakeholder);\n        Asset storage a = assets[_propertyID];\n        a.interstedTenant.push(msg.sender);\n    }\n\n    function payRent(\n        uint8 _months,\n        uint256 _propertyID,\n        uint256 _numOfShareholdersForProperty\n    ) public payable {\n        Asset storage a = assets[_propertyID];\n        uint256 _rentdue = _months * a.rentPer30Day;\n        uint256 _additionalBlocks = _months * blocksPer30Day;\n        require(\n            msg.value == _rentdue &&\n                block.number + _additionalBlocks <\n                block.number + a.rentalLimitBlocks\n        );\n\n        uint256 _taxdeduct = (msg.value / a.totalSupply) * tax;\n        _accumulated = (msg.value - _taxdeduct);\n        revenues[gov] += _taxdeduct;\n\n        address _stakeholder;\n        uint256 _shares;\n        uint256 _etherToRecieve;\n        uint256 s = 0;\n\n        for (s = 0; s < _numOfShareholdersForProperty; s++) {\n            _stakeholder = a.stakeholders[s];\n            _shares = a.shares[_stakeholder];\n            _etherToRecieve = (_accumulated / (a.totalSupply)) * _shares;\n            revenues[_stakeholder] = revenues[_stakeholder] + _etherToRecieve;\n        }\n        _accumulated = 0;\n\n        if (\n            a.rentpaidUntill[a.tenant] == 0 && a.occupiedUntill < block.number\n        ) {\n            //hasn't rented yet & flat is empty\n            a.rentpaidUntill[a.tenant] = block.number + _additionalBlocks; //rents from now on\n            a.rentalBegin = block.number;\n        } else if (\n            a.rentpaidUntill[a.tenant] == 0 && a.occupiedUntill > block.number\n        ) {\n            //hasn't rented yet & flat is occupied\n            a.rentpaidUntill[a.tenant] = a.occupiedUntill + _additionalBlocks; //rents from when it is free\n            a.rentalBegin = a.occupiedUntill;\n        } else if (a.rentpaidUntill[a.tenant] > block.number) {\n            //is renting, contract is runing\n            a.rentpaidUntill[a.tenant] += _additionalBlocks; //rents from when it is free\n            a.rentalBegin = a.occupiedUntill;\n        } else if (\n            a.rentpaidUntill[a.tenant] < block.number &&\n            a.occupiedUntill > block.number\n        ) {\n            //has rented before & flat is occupied\n            a.rentpaidUntill[a.tenant] = a.occupiedUntill + _additionalBlocks; //rents from when it is free\n            a.rentalBegin = a.occupiedUntill;\n        } else if (\n            a.rentpaidUntill[a.tenant] < block.number &&\n            a.occupiedUntill < block.number\n        ) {\n            //has rented before & flat is empty\n            a.rentpaidUntill[a.tenant] = block.number + _additionalBlocks; //rents from now on\n            a.rentalBegin = block.number; //has lived before and flat is empgy\n        }\n        a.occupiedUntill = a.rentpaidUntill[a.tenant];\n    }\n\n    function withdraw() public payable {\n        //revenues can be withdrawn from individual shareholders (government can too withdraw its own revenues)\n        address payable user = payable(msg.sender);\n        uint256 revenue = revenues[msg.sender];\n        revenues[msg.sender] = 0;\n\n        user.transfer(revenue);\n    }\n\n    // function distributeRent(uint256 _propertyID) public {\n    //     Asset storage a = assets[_propertyID];\n\n    //     uint256 _numOfShareholdersForProperty = numOfStakholdersForProperty(\n    //         _propertyID\n    //     );\n\n    //     address _stakeholder;\n    //     uint256 _shares;\n    //     uint256 _etherToRecieve;\n\n    //     for (uint256 s = 0; s < _numOfShareholdersForProperty; s++) {\n    //         _stakeholder = a.stakeholders[s];\n    //         _shares = a.shares[_stakeholder];\n    //         _etherToRecieve = (_accumulated / (a.totalSupply)) * _shares;\n    //         revenues[_stakeholder] = revenues[_stakeholder] + _etherToRecieve;\n    //     }\n    //     _accumulated = 0;\n    // }\n}\n",
  "sourcePath": "F:\\Blockchain real estate\\RET\\contracts\\RealEstateTokenization.sol",
  "compiler": {
    "name": "solc",
    "version": "0.8.13+commit.abaa5c0e.Emscripten.clang"
  },
  "schemaVersion": "3.4.4",
  "updatedAt": "2022-05-06T07:29:52.691Z",
  "networkType": "ethereum",
  "devdoc": {
    "kind": "dev",
    "methods": {},
    "version": 1
  },
  "userdoc": {
    "kind": "user",
    "methods": {},
    "version": 1
  }
}